{
	"task2/BeggingContract.sol": {
		"BeggingContract": {
			"abi": [
				{
					"inputs": [],
					"stateMutability": "nonpayable",
					"type": "constructor"
				},
				{
					"inputs": [
						{
							"internalType": "address",
							"name": "owner",
							"type": "address"
						}
					],
					"name": "OwnableInvalidOwner",
					"type": "error"
				},
				{
					"inputs": [
						{
							"internalType": "address",
							"name": "account",
							"type": "address"
						}
					],
					"name": "OwnableUnauthorizedAccount",
					"type": "error"
				},
				{
					"anonymous": false,
					"inputs": [
						{
							"indexed": true,
							"internalType": "address",
							"name": "donor",
							"type": "address"
						},
						{
							"indexed": false,
							"internalType": "uint256",
							"name": "amount",
							"type": "uint256"
						},
						{
							"indexed": false,
							"internalType": "uint256",
							"name": "timestamp",
							"type": "uint256"
						}
					],
					"name": "Donation",
					"type": "event"
				},
				{
					"anonymous": false,
					"inputs": [
						{
							"indexed": true,
							"internalType": "address",
							"name": "previousOwner",
							"type": "address"
						},
						{
							"indexed": true,
							"internalType": "address",
							"name": "newOwner",
							"type": "address"
						}
					],
					"name": "OwnershipTransferred",
					"type": "event"
				},
				{
					"anonymous": false,
					"inputs": [
						{
							"indexed": true,
							"internalType": "address",
							"name": "owner",
							"type": "address"
						},
						{
							"indexed": false,
							"internalType": "uint256",
							"name": "amount",
							"type": "uint256"
						},
						{
							"indexed": false,
							"internalType": "uint256",
							"name": "timestamp",
							"type": "uint256"
						}
					],
					"name": "WithDraw",
					"type": "event"
				},
				{
					"inputs": [],
					"name": "donate",
					"outputs": [],
					"stateMutability": "payable",
					"type": "function"
				},
				{
					"inputs": [],
					"name": "donationEndTime",
					"outputs": [
						{
							"internalType": "uint256",
							"name": "",
							"type": "uint256"
						}
					],
					"stateMutability": "view",
					"type": "function"
				},
				{
					"inputs": [
						{
							"internalType": "address",
							"name": "_addr",
							"type": "address"
						}
					],
					"name": "getDonation",
					"outputs": [
						{
							"internalType": "uint256",
							"name": "",
							"type": "uint256"
						}
					],
					"stateMutability": "view",
					"type": "function"
				},
				{
					"inputs": [],
					"name": "getTopDonors",
					"outputs": [
						{
							"internalType": "address[3]",
							"name": "",
							"type": "address[3]"
						}
					],
					"stateMutability": "view",
					"type": "function"
				},
				{
					"inputs": [],
					"name": "owner",
					"outputs": [
						{
							"internalType": "address",
							"name": "",
							"type": "address"
						}
					],
					"stateMutability": "view",
					"type": "function"
				},
				{
					"inputs": [],
					"name": "renounceOwnership",
					"outputs": [],
					"stateMutability": "nonpayable",
					"type": "function"
				},
				{
					"inputs": [
						{
							"internalType": "address",
							"name": "newOwner",
							"type": "address"
						}
					],
					"name": "transferOwnership",
					"outputs": [],
					"stateMutability": "nonpayable",
					"type": "function"
				},
				{
					"inputs": [],
					"name": "withdraw",
					"outputs": [],
					"stateMutability": "payable",
					"type": "function"
				}
			],
			"devdoc": {
				"errors": {
					"OwnableInvalidOwner(address)": [
						{
							"details": "The owner is not a valid owner account. (eg. `address(0)`)"
						}
					],
					"OwnableUnauthorizedAccount(address)": [
						{
							"details": "The caller account is not authorized to perform an operation."
						}
					]
				},
				"kind": "dev",
				"methods": {
					"owner()": {
						"details": "Returns the address of the current owner."
					},
					"renounceOwnership()": {
						"details": "Leaves the contract without owner. It will not be possible to call `onlyOwner` functions. Can only be called by the current owner. NOTE: Renouncing ownership will leave the contract without an owner, thereby disabling any functionality that is only available to the owner."
					},
					"transferOwnership(address)": {
						"details": "Transfers ownership of the contract to a new account (`newOwner`). Can only be called by the current owner."
					}
				},
				"version": 1
			},
			"evm": {
				"assembly": "    /* \"task2/BeggingContract.sol\":820:3533  contract BeggingContract is Ownable {... */\n  mstore(0x40, 0x80)\n    /* \"task2/BeggingContract.sol\":1385:1479  constructor() Ownable(msg.sender) {... */\n  callvalue\n  dup1\n  iszero\n  tag_1\n  jumpi\n  revert(0x00, 0x00)\ntag_1:\n  pop\n    /* \"task2/BeggingContract.sol\":1407:1417  msg.sender */\n  caller\n    /* \"@openzeppelin/contracts/access/Ownable.sol\":1297:1298  0 */\n  0x00\n    /* \"@openzeppelin/contracts/access/Ownable.sol\":1273:1299  initialOwner == address(0) */\n  0xffffffffffffffffffffffffffffffffffffffff\n  and\n    /* \"@openzeppelin/contracts/access/Ownable.sol\":1273:1285  initialOwner */\n  dup2\n    /* \"@openzeppelin/contracts/access/Ownable.sol\":1273:1299  initialOwner == address(0) */\n  0xffffffffffffffffffffffffffffffffffffffff\n  and\n  sub\n    /* \"@openzeppelin/contracts/access/Ownable.sol\":1269:1364  if (initialOwner == address(0)) {... */\n  tag_5\n  jumpi\n    /* \"@openzeppelin/contracts/access/Ownable.sol\":1350:1351  0 */\n  0x00\n    /* \"@openzeppelin/contracts/access/Ownable.sol\":1322:1353  OwnableInvalidOwner(address(0)) */\n  mload(0x40)\n  0x1e4fbdf700000000000000000000000000000000000000000000000000000000\n  dup2\n  mstore\n  0x04\n  add\n  tag_6\n  swap2\n  swap1\n  tag_7\n  jump\t// in\ntag_6:\n  mload(0x40)\n  dup1\n  swap2\n  sub\n  swap1\n  revert\n    /* \"@openzeppelin/contracts/access/Ownable.sol\":1269:1364  if (initialOwner == address(0)) {... */\ntag_5:\n    /* \"@openzeppelin/contracts/access/Ownable.sol\":1373:1405  _transferOwnership(initialOwner) */\n  tag_8\n    /* \"@openzeppelin/contracts/access/Ownable.sol\":1392:1404  initialOwner */\n  dup2\n    /* \"@openzeppelin/contracts/access/Ownable.sol\":1373:1391  _transferOwnership */\n  shl(0x20, tag_9)\n    /* \"@openzeppelin/contracts/access/Ownable.sol\":1373:1405  _transferOwnership(initialOwner) */\n  0x20\n  shr\n  jump\t// in\ntag_8:\n    /* \"@openzeppelin/contracts/access/Ownable.sol\":1225:1412  constructor(address initialOwner) {... */\n  pop\n    /* \"task2/BeggingContract.sol\":1466:1472  3 days */\n  0x03f480\n    /* \"task2/BeggingContract.sol\":1448:1463  block.timestamp */\n  timestamp\n    /* \"task2/BeggingContract.sol\":1448:1472  block.timestamp + 3 days */\n  tag_11\n  swap2\n  swap1\n  tag_12\n  jump\t// in\ntag_11:\n    /* \"task2/BeggingContract.sol\":1430:1445  donationEndTime */\n  0x02\n    /* \"task2/BeggingContract.sol\":1430:1472  donationEndTime = block.timestamp + 3 days */\n  dup2\n  swap1\n  sstore\n  pop\n    /* \"task2/BeggingContract.sol\":820:3533  contract BeggingContract is Ownable {... */\n  jump(tag_13)\n    /* \"@openzeppelin/contracts/access/Ownable.sol\":2912:3099  function _transferOwnership(address newOwner) internal virtual {... */\ntag_9:\n    /* \"@openzeppelin/contracts/access/Ownable.sol\":2985:3001  address oldOwner */\n  0x00\n    /* \"@openzeppelin/contracts/access/Ownable.sol\":3004:3010  _owner */\n  0x00\n  0x00\n  swap1\n  sload\n  swap1\n  0x0100\n  exp\n  swap1\n  div\n  0xffffffffffffffffffffffffffffffffffffffff\n  and\n    /* \"@openzeppelin/contracts/access/Ownable.sol\":2985:3010  address oldOwner = _owner */\n  swap1\n  pop\n    /* \"@openzeppelin/contracts/access/Ownable.sol\":3029:3037  newOwner */\n  dup2\n    /* \"@openzeppelin/contracts/access/Ownable.sol\":3020:3026  _owner */\n  0x00\n  0x00\n    /* \"@openzeppelin/contracts/access/Ownable.sol\":3020:3037  _owner = newOwner */\n  0x0100\n  exp\n  dup2\n  sload\n  dup2\n  0xffffffffffffffffffffffffffffffffffffffff\n  mul\n  not\n  and\n  swap1\n  dup4\n  0xffffffffffffffffffffffffffffffffffffffff\n  and\n  mul\n  or\n  swap1\n  sstore\n  pop\n    /* \"@openzeppelin/contracts/access/Ownable.sol\":3083:3091  newOwner */\n  dup2\n    /* \"@openzeppelin/contracts/access/Ownable.sol\":3052:3092  OwnershipTransferred(oldOwner, newOwner) */\n  0xffffffffffffffffffffffffffffffffffffffff\n  and\n    /* \"@openzeppelin/contracts/access/Ownable.sol\":3073:3081  oldOwner */\n  dup2\n    /* \"@openzeppelin/contracts/access/Ownable.sol\":3052:3092  OwnershipTransferred(oldOwner, newOwner) */\n  0xffffffffffffffffffffffffffffffffffffffff\n  and\n  0x8be0079c531659141344cd1fd0a4f28419497f9722a3daafe3b4186f6b6457e0\n  mload(0x40)\n  mload(0x40)\n  dup1\n  swap2\n  sub\n  swap1\n  log3\n    /* \"@openzeppelin/contracts/access/Ownable.sol\":2975:3099  {... */\n  pop\n    /* \"@openzeppelin/contracts/access/Ownable.sol\":2912:3099  function _transferOwnership(address newOwner) internal virtual {... */\n  pop\n  jump\t// out\n    /* \"#utility.yul\":7:133   */\ntag_15:\n    /* \"#utility.yul\":44:51   */\n  0x00\n    /* \"#utility.yul\":84:126   */\n  0xffffffffffffffffffffffffffffffffffffffff\n    /* \"#utility.yul\":77:82   */\n  dup3\n    /* \"#utility.yul\":73:127   */\n  and\n    /* \"#utility.yul\":62:127   */\n  swap1\n  pop\n    /* \"#utility.yul\":7:133   */\n  swap2\n  swap1\n  pop\n  jump\t// out\n    /* \"#utility.yul\":139:235   */\ntag_16:\n    /* \"#utility.yul\":176:183   */\n  0x00\n    /* \"#utility.yul\":205:229   */\n  tag_23\n    /* \"#utility.yul\":223:228   */\n  dup3\n    /* \"#utility.yul\":205:229   */\n  tag_15\n  jump\t// in\ntag_23:\n    /* \"#utility.yul\":194:229   */\n  swap1\n  pop\n    /* \"#utility.yul\":139:235   */\n  swap2\n  swap1\n  pop\n  jump\t// out\n    /* \"#utility.yul\":241:359   */\ntag_17:\n    /* \"#utility.yul\":328:352   */\n  tag_25\n    /* \"#utility.yul\":346:351   */\n  dup2\n    /* \"#utility.yul\":328:352   */\n  tag_16\n  jump\t// in\ntag_25:\n    /* \"#utility.yul\":323:326   */\n  dup3\n    /* \"#utility.yul\":316:353   */\n  mstore\n    /* \"#utility.yul\":241:359   */\n  pop\n  pop\n  jump\t// out\n    /* \"#utility.yul\":365:587   */\ntag_7:\n    /* \"#utility.yul\":458:462   */\n  0x00\n    /* \"#utility.yul\":496:498   */\n  0x20\n    /* \"#utility.yul\":485:494   */\n  dup3\n    /* \"#utility.yul\":481:499   */\n  add\n    /* \"#utility.yul\":473:499   */\n  swap1\n  pop\n    /* \"#utility.yul\":509:580   */\n  tag_27\n    /* \"#utility.yul\":577:578   */\n  0x00\n    /* \"#utility.yul\":566:575   */\n  dup4\n    /* \"#utility.yul\":562:579   */\n  add\n    /* \"#utility.yul\":553:559   */\n  dup5\n    /* \"#utility.yul\":509:580   */\n  tag_17\n  jump\t// in\ntag_27:\n    /* \"#utility.yul\":365:587   */\n  swap3\n  swap2\n  pop\n  pop\n  jump\t// out\n    /* \"#utility.yul\":593:670   */\ntag_18:\n    /* \"#utility.yul\":630:637   */\n  0x00\n    /* \"#utility.yul\":659:664   */\n  dup2\n    /* \"#utility.yul\":648:664   */\n  swap1\n  pop\n    /* \"#utility.yul\":593:670   */\n  swap2\n  swap1\n  pop\n  jump\t// out\n    /* \"#utility.yul\":676:856   */\ntag_19:\n    /* \"#utility.yul\":724:801   */\n  0x4e487b7100000000000000000000000000000000000000000000000000000000\n    /* \"#utility.yul\":721:722   */\n  0x00\n    /* \"#utility.yul\":714:802   */\n  mstore\n    /* \"#utility.yul\":821:825   */\n  0x11\n    /* \"#utility.yul\":818:819   */\n  0x04\n    /* \"#utility.yul\":811:826   */\n  mstore\n    /* \"#utility.yul\":845:849   */\n  0x24\n    /* \"#utility.yul\":842:843   */\n  0x00\n    /* \"#utility.yul\":835:850   */\n  revert\n    /* \"#utility.yul\":862:1053   */\ntag_12:\n    /* \"#utility.yul\":902:905   */\n  0x00\n    /* \"#utility.yul\":921:941   */\n  tag_31\n    /* \"#utility.yul\":939:940   */\n  dup3\n    /* \"#utility.yul\":921:941   */\n  tag_18\n  jump\t// in\ntag_31:\n    /* \"#utility.yul\":916:941   */\n  swap2\n  pop\n    /* \"#utility.yul\":955:975   */\n  tag_32\n    /* \"#utility.yul\":973:974   */\n  dup4\n    /* \"#utility.yul\":955:975   */\n  tag_18\n  jump\t// in\ntag_32:\n    /* \"#utility.yul\":950:975   */\n  swap3\n  pop\n    /* \"#utility.yul\":998:999   */\n  dup3\n    /* \"#utility.yul\":995:996   */\n  dup3\n    /* \"#utility.yul\":991:1000   */\n  add\n    /* \"#utility.yul\":984:1000   */\n  swap1\n  pop\n    /* \"#utility.yul\":1019:1022   */\n  dup1\n    /* \"#utility.yul\":1016:1017   */\n  dup3\n    /* \"#utility.yul\":1013:1023   */\n  gt\n    /* \"#utility.yul\":1010:1046   */\n  iszero\n  tag_33\n  jumpi\n    /* \"#utility.yul\":1026:1044   */\n  tag_34\n  tag_19\n  jump\t// in\ntag_34:\n    /* \"#utility.yul\":1010:1046   */\ntag_33:\n    /* \"#utility.yul\":862:1053   */\n  swap3\n  swap2\n  pop\n  pop\n  jump\t// out\n    /* \"task2/BeggingContract.sol\":820:3533  contract BeggingContract is Ownable {... */\ntag_13:\n  dataSize(sub_0)\n  dup1\n  dataOffset(sub_0)\n  0x00\n  codecopy\n  0x00\n  return\nstop\n\nsub_0: assembly {\n        /* \"task2/BeggingContract.sol\":820:3533  contract BeggingContract is Ownable {... */\n      mstore(0x40, 0x80)\n      jumpi(tag_1, lt(calldatasize, 0x04))\n      shr(0xe0, calldataload(0x00))\n      dup1\n      0xd6387ed8\n      gt\n      tag_10\n      jumpi\n      dup1\n      0xd6387ed8\n      eq\n      tag_6\n      jumpi\n      dup1\n      0xed88c68e\n      eq\n      tag_7\n      jumpi\n      dup1\n      0xf12a4a53\n      eq\n      tag_8\n      jumpi\n      dup1\n      0xf2fde38b\n      eq\n      tag_9\n      jumpi\n      jump(tag_1)\n    tag_10:\n      dup1\n      0x3ccfd60b\n      eq\n      tag_2\n      jumpi\n      dup1\n      0x410a1d32\n      eq\n      tag_3\n      jumpi\n      dup1\n      0x715018a6\n      eq\n      tag_4\n      jumpi\n      dup1\n      0x8da5cb5b\n      eq\n      tag_5\n      jumpi\n    tag_1:\n      revert(0x00, 0x00)\n        /* \"task2/BeggingContract.sol\":2924:3231  function withdraw() external payable onlyOwner {... */\n    tag_2:\n      tag_11\n      tag_12\n      jump\t// in\n    tag_11:\n      stop\n        /* \"task2/BeggingContract.sol\":3283:3387  function getDonation(address _addr) public view returns (uint) {... */\n    tag_3:\n      callvalue\n      dup1\n      iszero\n      tag_13\n      jumpi\n      revert(0x00, 0x00)\n    tag_13:\n      pop\n      tag_14\n      0x04\n      dup1\n      calldatasize\n      sub\n      dup2\n      add\n      swap1\n      tag_15\n      swap2\n      swap1\n      tag_16\n      jump\t// in\n    tag_15:\n      tag_17\n      jump\t// in\n    tag_14:\n      mload(0x40)\n      tag_18\n      swap2\n      swap1\n      tag_19\n      jump\t// in\n    tag_18:\n      mload(0x40)\n      dup1\n      swap2\n      sub\n      swap1\n      return\n        /* \"@openzeppelin/contracts/access/Ownable.sol\":2293:2394  function renounceOwnership() public virtual onlyOwner {... */\n    tag_4:\n      callvalue\n      dup1\n      iszero\n      tag_20\n      jumpi\n      revert(0x00, 0x00)\n    tag_20:\n      pop\n      tag_21\n      tag_22\n      jump\t// in\n    tag_21:\n      stop\n        /* \"@openzeppelin/contracts/access/Ownable.sol\":1638:1723  function owner() public view virtual returns (address) {... */\n    tag_5:\n      callvalue\n      dup1\n      iszero\n      tag_23\n      jumpi\n      revert(0x00, 0x00)\n    tag_23:\n      pop\n      tag_24\n      tag_25\n      jump\t// in\n    tag_24:\n      mload(0x40)\n      tag_26\n      swap2\n      swap1\n      tag_27\n      jump\t// in\n    tag_26:\n      mload(0x40)\n      dup1\n      swap2\n      sub\n      swap1\n      return\n        /* \"task2/BeggingContract.sol\":3434:3531  function getTopDonors() public view returns (address[3] memory) {... */\n    tag_6:\n      callvalue\n      dup1\n      iszero\n      tag_28\n      jumpi\n      revert(0x00, 0x00)\n    tag_28:\n      pop\n      tag_29\n      tag_30\n      jump\t// in\n    tag_29:\n      mload(0x40)\n      tag_31\n      swap2\n      swap1\n      tag_32\n      jump\t// in\n    tag_31:\n      mload(0x40)\n      dup1\n      swap2\n      sub\n      swap1\n      return\n        /* \"task2/BeggingContract.sol\":1499:1972  function donate() public payable {... */\n    tag_7:\n      tag_33\n      tag_34\n      jump\t// in\n    tag_33:\n      stop\n        /* \"task2/BeggingContract.sol\":1259:1289  uint256 public donationEndTime */\n    tag_8:\n      callvalue\n      dup1\n      iszero\n      tag_35\n      jumpi\n      revert(0x00, 0x00)\n    tag_35:\n      pop\n      tag_36\n      tag_37\n      jump\t// in\n    tag_36:\n      mload(0x40)\n      tag_38\n      swap2\n      swap1\n      tag_19\n      jump\t// in\n    tag_38:\n      mload(0x40)\n      dup1\n      swap2\n      sub\n      swap1\n      return\n        /* \"@openzeppelin/contracts/access/Ownable.sol\":2543:2758  function transferOwnership(address newOwner) public virtual onlyOwner {... */\n    tag_9:\n      callvalue\n      dup1\n      iszero\n      tag_39\n      jumpi\n      revert(0x00, 0x00)\n    tag_39:\n      pop\n      tag_40\n      0x04\n      dup1\n      calldatasize\n      sub\n      dup2\n      add\n      swap1\n      tag_41\n      swap2\n      swap1\n      tag_16\n      jump\t// in\n    tag_41:\n      tag_42\n      jump\t// in\n    tag_40:\n      stop\n        /* \"task2/BeggingContract.sol\":2924:3231  function withdraw() external payable onlyOwner {... */\n    tag_12:\n        /* \"@openzeppelin/contracts/access/Ownable.sol\":1531:1544  _checkOwner() */\n      tag_44\n        /* \"@openzeppelin/contracts/access/Ownable.sol\":1531:1542  _checkOwner */\n      tag_45\n        /* \"@openzeppelin/contracts/access/Ownable.sol\":1531:1544  _checkOwner() */\n      jump\t// in\n    tag_44:\n        /* \"task2/BeggingContract.sol\":2981:2993  uint balance */\n      0x00\n        /* \"task2/BeggingContract.sol\":2996:3017  address(this).balance */\n      selfbalance\n        /* \"task2/BeggingContract.sol\":2981:3017  uint balance = address(this).balance */\n      swap1\n      pop\n        /* \"task2/BeggingContract.sol\":3045:3046  0 */\n      0x00\n        /* \"task2/BeggingContract.sol\":3035:3042  balance */\n      dup2\n        /* \"task2/BeggingContract.sol\":3035:3046  balance > 0 */\n      gt\n        /* \"task2/BeggingContract.sol\":3027:3062  require(balance > 0, \"no balance!\") */\n      tag_47\n      jumpi\n      mload(0x40)\n      0x08c379a000000000000000000000000000000000000000000000000000000000\n      dup2\n      mstore\n      0x04\n      add\n      tag_48\n      swap1\n      tag_49\n      jump\t// in\n    tag_48:\n      mload(0x40)\n      dup1\n      swap2\n      sub\n      swap1\n      revert\n    tag_47:\n        /* \"task2/BeggingContract.sol\":3140:3147  owner() */\n      tag_50\n        /* \"task2/BeggingContract.sol\":3140:3145  owner */\n      tag_25\n        /* \"task2/BeggingContract.sol\":3140:3147  owner() */\n      jump\t// in\n    tag_50:\n        /* \"task2/BeggingContract.sol\":3132:3157  payable(owner()).transfer */\n      0xffffffffffffffffffffffffffffffffffffffff\n      and\n        /* \"task2/BeggingContract.sol\":3132:3166  payable(owner()).transfer(balance) */\n      0x08fc\n        /* \"task2/BeggingContract.sol\":3158:3165  balance */\n      dup3\n        /* \"task2/BeggingContract.sol\":3132:3166  payable(owner()).transfer(balance) */\n      swap1\n      dup2\n      iszero\n      mul\n      swap1\n      mload(0x40)\n      0x00\n      mload(0x40)\n      dup1\n      dup4\n      sub\n      dup2\n      dup6\n      dup9\n      dup9\n      call\n      swap4\n      pop\n      pop\n      pop\n      pop\n      iszero\n      dup1\n      iszero\n      tag_52\n      jumpi\n      returndatacopy(0x00, 0x00, returndatasize)\n      revert(0x00, returndatasize)\n    tag_52:\n      pop\n        /* \"task2/BeggingContract.sol\":3190:3197  owner() */\n      tag_53\n        /* \"task2/BeggingContract.sol\":3190:3195  owner */\n      tag_25\n        /* \"task2/BeggingContract.sol\":3190:3197  owner() */\n      jump\t// in\n    tag_53:\n        /* \"task2/BeggingContract.sol\":3181:3224  Donation(owner(), balance, block.timestamp) */\n      0xffffffffffffffffffffffffffffffffffffffff\n      and\n      0x106aac375bbcf013d1e52338bbf9e740009a1a3a6869f8daa1b72aa1620f5fec\n        /* \"task2/BeggingContract.sol\":3199:3206  balance */\n      dup3\n        /* \"task2/BeggingContract.sol\":3208:3223  block.timestamp */\n      timestamp\n        /* \"task2/BeggingContract.sol\":3181:3224  Donation(owner(), balance, block.timestamp) */\n      mload(0x40)\n      tag_54\n      swap3\n      swap2\n      swap1\n      tag_55\n      jump\t// in\n    tag_54:\n      mload(0x40)\n      dup1\n      swap2\n      sub\n      swap1\n      log2\n        /* \"task2/BeggingContract.sol\":2971:3231  {... */\n      pop\n        /* \"task2/BeggingContract.sol\":2924:3231  function withdraw() external payable onlyOwner {... */\n      jump\t// out\n        /* \"task2/BeggingContract.sol\":3283:3387  function getDonation(address _addr) public view returns (uint) {... */\n    tag_17:\n        /* \"task2/BeggingContract.sol\":3340:3344  uint */\n      0x00\n        /* \"task2/BeggingContract.sol\":3363:3373  _donations */\n      0x01\n        /* \"task2/BeggingContract.sol\":3363:3380  _donations[_addr] */\n      0x00\n        /* \"task2/BeggingContract.sol\":3374:3379  _addr */\n      dup4\n        /* \"task2/BeggingContract.sol\":3363:3380  _donations[_addr] */\n      0xffffffffffffffffffffffffffffffffffffffff\n      and\n      0xffffffffffffffffffffffffffffffffffffffff\n      and\n      dup2\n      mstore\n      0x20\n      add\n      swap1\n      dup2\n      mstore\n      0x20\n      add\n      0x00\n      keccak256\n      sload\n        /* \"task2/BeggingContract.sol\":3356:3380  return _donations[_addr] */\n      swap1\n      pop\n        /* \"task2/BeggingContract.sol\":3283:3387  function getDonation(address _addr) public view returns (uint) {... */\n      swap2\n      swap1\n      pop\n      jump\t// out\n        /* \"@openzeppelin/contracts/access/Ownable.sol\":2293:2394  function renounceOwnership() public virtual onlyOwner {... */\n    tag_22:\n        /* \"@openzeppelin/contracts/access/Ownable.sol\":1531:1544  _checkOwner() */\n      tag_58\n        /* \"@openzeppelin/contracts/access/Ownable.sol\":1531:1542  _checkOwner */\n      tag_45\n        /* \"@openzeppelin/contracts/access/Ownable.sol\":1531:1544  _checkOwner() */\n      jump\t// in\n    tag_58:\n        /* \"@openzeppelin/contracts/access/Ownable.sol\":2357:2387  _transferOwnership(address(0)) */\n      tag_60\n        /* \"@openzeppelin/contracts/access/Ownable.sol\":2384:2385  0 */\n      0x00\n        /* \"@openzeppelin/contracts/access/Ownable.sol\":2357:2375  _transferOwnership */\n      tag_61\n        /* \"@openzeppelin/contracts/access/Ownable.sol\":2357:2387  _transferOwnership(address(0)) */\n      jump\t// in\n    tag_60:\n        /* \"@openzeppelin/contracts/access/Ownable.sol\":2293:2394  function renounceOwnership() public virtual onlyOwner {... */\n      jump\t// out\n        /* \"@openzeppelin/contracts/access/Ownable.sol\":1638:1723  function owner() public view virtual returns (address) {... */\n    tag_25:\n        /* \"@openzeppelin/contracts/access/Ownable.sol\":1684:1691  address */\n      0x00\n        /* \"@openzeppelin/contracts/access/Ownable.sol\":1710:1716  _owner */\n      0x00\n      0x00\n      swap1\n      sload\n      swap1\n      0x0100\n      exp\n      swap1\n      div\n      0xffffffffffffffffffffffffffffffffffffffff\n      and\n        /* \"@openzeppelin/contracts/access/Ownable.sol\":1703:1716  return _owner */\n      swap1\n      pop\n        /* \"@openzeppelin/contracts/access/Ownable.sol\":1638:1723  function owner() public view virtual returns (address) {... */\n      swap1\n      jump\t// out\n        /* \"task2/BeggingContract.sol\":3434:3531  function getTopDonors() public view returns (address[3] memory) {... */\n    tag_30:\n        /* \"task2/BeggingContract.sol\":3479:3496  address[3] memory */\n      tag_63\n      tag_64\n      jump\t// in\n    tag_63:\n        /* \"task2/BeggingContract.sol\":3515:3524  topDonors */\n      0x03\n        /* \"task2/BeggingContract.sol\":3508:3524  return topDonors */\n      dup1\n      dup1\n      0x20\n      mul\n      mload(0x40)\n      swap1\n      dup2\n      add\n      0x40\n      mstore\n      dup1\n      swap3\n      swap2\n      swap1\n      dup3\n      0x03\n      dup1\n      iszero\n      tag_66\n      jumpi\n      0x20\n      mul\n      dup3\n      add\n      swap2\n    tag_67:\n      dup2\n      0x00\n      swap1\n      sload\n      swap1\n      0x0100\n      exp\n      swap1\n      div\n      0xffffffffffffffffffffffffffffffffffffffff\n      and\n      0xffffffffffffffffffffffffffffffffffffffff\n      and\n      dup2\n      mstore\n      0x20\n      add\n      swap1\n      0x01\n      add\n      swap1\n      dup1\n      dup4\n      gt\n      tag_67\n      jumpi\n    tag_66:\n      pop\n      pop\n      pop\n      pop\n      pop\n      swap1\n      pop\n        /* \"task2/BeggingContract.sol\":3434:3531  function getTopDonors() public view returns (address[3] memory) {... */\n      swap1\n      jump\t// out\n        /* \"task2/BeggingContract.sol\":1499:1972  function donate() public payable {... */\n    tag_34:\n        /* \"task2/BeggingContract.sol\":1542:1558  uint256 donation */\n      0x00\n        /* \"task2/BeggingContract.sol\":1561:1570  msg.value */\n      callvalue\n        /* \"task2/BeggingContract.sol\":1542:1570  uint256 donation = msg.value */\n      swap1\n      pop\n        /* \"task2/BeggingContract.sol\":1599:1600  0 */\n      0x00\n        /* \"task2/BeggingContract.sol\":1588:1596  donation */\n      dup2\n        /* \"task2/BeggingContract.sol\":1588:1600  donation > 0 */\n      gt\n        /* \"task2/BeggingContract.sol\":1580:1643  require(donation > 0, \"Donation amount must be greater than 0\") */\n      tag_69\n      jumpi\n      mload(0x40)\n      0x08c379a000000000000000000000000000000000000000000000000000000000\n      dup2\n      mstore\n      0x04\n      add\n      tag_70\n      swap1\n      tag_71\n      jump\t// in\n    tag_70:\n      mload(0x40)\n      dup1\n      swap2\n      sub\n      swap1\n      revert\n    tag_69:\n        /* \"task2/BeggingContract.sol\":1775:1790  donationEndTime */\n      sload(0x02)\n        /* \"task2/BeggingContract.sol\":1757:1772  block.timestamp */\n      timestamp\n        /* \"task2/BeggingContract.sol\":1757:1790  block.timestamp < donationEndTime */\n      lt\n        /* \"task2/BeggingContract.sol\":1749:1820  require(block.timestamp < donationEndTime, \"Donation period has ended\") */\n      tag_72\n      jumpi\n      mload(0x40)\n      0x08c379a000000000000000000000000000000000000000000000000000000000\n      dup2\n      mstore\n      0x04\n      add\n      tag_73\n      swap1\n      tag_74\n      jump\t// in\n    tag_73:\n      mload(0x40)\n      dup1\n      swap2\n      sub\n      swap1\n      revert\n    tag_72:\n        /* \"task2/BeggingContract.sol\":1856:1864  donation */\n      dup1\n        /* \"task2/BeggingContract.sol\":1830:1840  _donations */\n      0x01\n        /* \"task2/BeggingContract.sol\":1830:1852  _donations[msg.sender] */\n      0x00\n        /* \"task2/BeggingContract.sol\":1841:1851  msg.sender */\n      caller\n        /* \"task2/BeggingContract.sol\":1830:1852  _donations[msg.sender] */\n      0xffffffffffffffffffffffffffffffffffffffff\n      and\n      0xffffffffffffffffffffffffffffffffffffffff\n      and\n      dup2\n      mstore\n      0x20\n      add\n      swap1\n      dup2\n      mstore\n      0x20\n      add\n      0x00\n      keccak256\n      0x00\n        /* \"task2/BeggingContract.sol\":1830:1864  _donations[msg.sender] += donation */\n      dup3\n      dup3\n      sload\n      tag_75\n      swap2\n      swap1\n      tag_76\n      jump\t// in\n    tag_75:\n      swap3\n      pop\n      pop\n      dup2\n      swap1\n      sstore\n      pop\n        /* \"task2/BeggingContract.sol\":1874:1902  updateTopDonnors(msg.sender) */\n      tag_77\n        /* \"task2/BeggingContract.sol\":1891:1901  msg.sender */\n      caller\n        /* \"task2/BeggingContract.sol\":1874:1890  updateTopDonnors */\n      tag_78\n        /* \"task2/BeggingContract.sol\":1874:1902  updateTopDonnors(msg.sender) */\n      jump\t// in\n    tag_77:\n        /* \"task2/BeggingContract.sol\":1926:1936  msg.sender */\n      caller\n        /* \"task2/BeggingContract.sol\":1917:1965  Donation(msg.sender, msg.value, block.timestamp) */\n      0xffffffffffffffffffffffffffffffffffffffff\n      and\n      0x106aac375bbcf013d1e52338bbf9e740009a1a3a6869f8daa1b72aa1620f5fec\n        /* \"task2/BeggingContract.sol\":1938:1947  msg.value */\n      callvalue\n        /* \"task2/BeggingContract.sol\":1949:1964  block.timestamp */\n      timestamp\n        /* \"task2/BeggingContract.sol\":1917:1965  Donation(msg.sender, msg.value, block.timestamp) */\n      mload(0x40)\n      tag_79\n      swap3\n      swap2\n      swap1\n      tag_55\n      jump\t// in\n    tag_79:\n      mload(0x40)\n      dup1\n      swap2\n      sub\n      swap1\n      log2\n        /* \"task2/BeggingContract.sol\":1532:1972  {... */\n      pop\n        /* \"task2/BeggingContract.sol\":1499:1972  function donate() public payable {... */\n      jump\t// out\n        /* \"task2/BeggingContract.sol\":1259:1289  uint256 public donationEndTime */\n    tag_37:\n      sload(0x02)\n      dup2\n      jump\t// out\n        /* \"@openzeppelin/contracts/access/Ownable.sol\":2543:2758  function transferOwnership(address newOwner) public virtual onlyOwner {... */\n    tag_42:\n        /* \"@openzeppelin/contracts/access/Ownable.sol\":1531:1544  _checkOwner() */\n      tag_81\n        /* \"@openzeppelin/contracts/access/Ownable.sol\":1531:1542  _checkOwner */\n      tag_45\n        /* \"@openzeppelin/contracts/access/Ownable.sol\":1531:1544  _checkOwner() */\n      jump\t// in\n    tag_81:\n        /* \"@openzeppelin/contracts/access/Ownable.sol\":2647:2648  0 */\n      0x00\n        /* \"@openzeppelin/contracts/access/Ownable.sol\":2627:2649  newOwner == address(0) */\n      0xffffffffffffffffffffffffffffffffffffffff\n      and\n        /* \"@openzeppelin/contracts/access/Ownable.sol\":2627:2635  newOwner */\n      dup2\n        /* \"@openzeppelin/contracts/access/Ownable.sol\":2627:2649  newOwner == address(0) */\n      0xffffffffffffffffffffffffffffffffffffffff\n      and\n      sub\n        /* \"@openzeppelin/contracts/access/Ownable.sol\":2623:2714  if (newOwner == address(0)) {... */\n      tag_83\n      jumpi\n        /* \"@openzeppelin/contracts/access/Ownable.sol\":2700:2701  0 */\n      0x00\n        /* \"@openzeppelin/contracts/access/Ownable.sol\":2672:2703  OwnableInvalidOwner(address(0)) */\n      mload(0x40)\n      0x1e4fbdf700000000000000000000000000000000000000000000000000000000\n      dup2\n      mstore\n      0x04\n      add\n      tag_84\n      swap2\n      swap1\n      tag_27\n      jump\t// in\n    tag_84:\n      mload(0x40)\n      dup1\n      swap2\n      sub\n      swap1\n      revert\n        /* \"@openzeppelin/contracts/access/Ownable.sol\":2623:2714  if (newOwner == address(0)) {... */\n    tag_83:\n        /* \"@openzeppelin/contracts/access/Ownable.sol\":2723:2751  _transferOwnership(newOwner) */\n      tag_85\n        /* \"@openzeppelin/contracts/access/Ownable.sol\":2742:2750  newOwner */\n      dup2\n        /* \"@openzeppelin/contracts/access/Ownable.sol\":2723:2741  _transferOwnership */\n      tag_61\n        /* \"@openzeppelin/contracts/access/Ownable.sol\":2723:2751  _transferOwnership(newOwner) */\n      jump\t// in\n    tag_85:\n        /* \"@openzeppelin/contracts/access/Ownable.sol\":2543:2758  function transferOwnership(address newOwner) public virtual onlyOwner {... */\n      pop\n      jump\t// out\n        /* \"@openzeppelin/contracts/access/Ownable.sol\":1796:1958  function _checkOwner() internal view virtual {... */\n    tag_45:\n        /* \"@openzeppelin/contracts/access/Ownable.sol\":1866:1878  _msgSender() */\n      tag_87\n        /* \"@openzeppelin/contracts/access/Ownable.sol\":1866:1876  _msgSender */\n      tag_88\n        /* \"@openzeppelin/contracts/access/Ownable.sol\":1866:1878  _msgSender() */\n      jump\t// in\n    tag_87:\n        /* \"@openzeppelin/contracts/access/Ownable.sol\":1855:1878  owner() != _msgSender() */\n      0xffffffffffffffffffffffffffffffffffffffff\n      and\n        /* \"@openzeppelin/contracts/access/Ownable.sol\":1855:1862  owner() */\n      tag_89\n        /* \"@openzeppelin/contracts/access/Ownable.sol\":1855:1860  owner */\n      tag_25\n        /* \"@openzeppelin/contracts/access/Ownable.sol\":1855:1862  owner() */\n      jump\t// in\n    tag_89:\n        /* \"@openzeppelin/contracts/access/Ownable.sol\":1855:1878  owner() != _msgSender() */\n      0xffffffffffffffffffffffffffffffffffffffff\n      and\n      eq\n        /* \"@openzeppelin/contracts/access/Ownable.sol\":1851:1952  if (owner() != _msgSender()) {... */\n      tag_90\n      jumpi\n        /* \"@openzeppelin/contracts/access/Ownable.sol\":1928:1940  _msgSender() */\n      tag_91\n        /* \"@openzeppelin/contracts/access/Ownable.sol\":1928:1938  _msgSender */\n      tag_88\n        /* \"@openzeppelin/contracts/access/Ownable.sol\":1928:1940  _msgSender() */\n      jump\t// in\n    tag_91:\n        /* \"@openzeppelin/contracts/access/Ownable.sol\":1901:1941  OwnableUnauthorizedAccount(_msgSender()) */\n      mload(0x40)\n      0x118cdaa700000000000000000000000000000000000000000000000000000000\n      dup2\n      mstore\n      0x04\n      add\n      tag_92\n      swap2\n      swap1\n      tag_27\n      jump\t// in\n    tag_92:\n      mload(0x40)\n      dup1\n      swap2\n      sub\n      swap1\n      revert\n        /* \"@openzeppelin/contracts/access/Ownable.sol\":1851:1952  if (owner() != _msgSender()) {... */\n    tag_90:\n        /* \"@openzeppelin/contracts/access/Ownable.sol\":1796:1958  function _checkOwner() internal view virtual {... */\n      jump\t// out\n        /* \"@openzeppelin/contracts/access/Ownable.sol\":2912:3099  function _transferOwnership(address newOwner) internal virtual {... */\n    tag_61:\n        /* \"@openzeppelin/contracts/access/Ownable.sol\":2985:3001  address oldOwner */\n      0x00\n        /* \"@openzeppelin/contracts/access/Ownable.sol\":3004:3010  _owner */\n      0x00\n      0x00\n      swap1\n      sload\n      swap1\n      0x0100\n      exp\n      swap1\n      div\n      0xffffffffffffffffffffffffffffffffffffffff\n      and\n        /* \"@openzeppelin/contracts/access/Ownable.sol\":2985:3010  address oldOwner = _owner */\n      swap1\n      pop\n        /* \"@openzeppelin/contracts/access/Ownable.sol\":3029:3037  newOwner */\n      dup2\n        /* \"@openzeppelin/contracts/access/Ownable.sol\":3020:3026  _owner */\n      0x00\n      0x00\n        /* \"@openzeppelin/contracts/access/Ownable.sol\":3020:3037  _owner = newOwner */\n      0x0100\n      exp\n      dup2\n      sload\n      dup2\n      0xffffffffffffffffffffffffffffffffffffffff\n      mul\n      not\n      and\n      swap1\n      dup4\n      0xffffffffffffffffffffffffffffffffffffffff\n      and\n      mul\n      or\n      swap1\n      sstore\n      pop\n        /* \"@openzeppelin/contracts/access/Ownable.sol\":3083:3091  newOwner */\n      dup2\n        /* \"@openzeppelin/contracts/access/Ownable.sol\":3052:3092  OwnershipTransferred(oldOwner, newOwner) */\n      0xffffffffffffffffffffffffffffffffffffffff\n      and\n        /* \"@openzeppelin/contracts/access/Ownable.sol\":3073:3081  oldOwner */\n      dup2\n        /* \"@openzeppelin/contracts/access/Ownable.sol\":3052:3092  OwnershipTransferred(oldOwner, newOwner) */\n      0xffffffffffffffffffffffffffffffffffffffff\n      and\n      0x8be0079c531659141344cd1fd0a4f28419497f9722a3daafe3b4186f6b6457e0\n      mload(0x40)\n      mload(0x40)\n      dup1\n      swap2\n      sub\n      swap1\n      log3\n        /* \"@openzeppelin/contracts/access/Ownable.sol\":2975:3099  {... */\n      pop\n        /* \"@openzeppelin/contracts/access/Ownable.sol\":2912:3099  function _transferOwnership(address newOwner) internal virtual {... */\n      pop\n      jump\t// out\n        /* \"task2/BeggingContract.sol\":1978:2871  function updateTopDonnors(address donor) private{... */\n    tag_78:\n        /* \"task2/BeggingContract.sol\":2036:2050  uint256 amount */\n      0x00\n        /* \"task2/BeggingContract.sol\":2053:2063  _donations */\n      0x01\n        /* \"task2/BeggingContract.sol\":2053:2070  _donations[donor] */\n      0x00\n        /* \"task2/BeggingContract.sol\":2064:2069  donor */\n      dup4\n        /* \"task2/BeggingContract.sol\":2053:2070  _donations[donor] */\n      0xffffffffffffffffffffffffffffffffffffffff\n      and\n      0xffffffffffffffffffffffffffffffffffffffff\n      and\n      dup2\n      mstore\n      0x20\n      add\n      swap1\n      dup2\n      mstore\n      0x20\n      add\n      0x00\n      keccak256\n      sload\n        /* \"task2/BeggingContract.sol\":2036:2070  uint256 amount = _donations[donor] */\n      swap1\n      pop\n        /* \"task2/BeggingContract.sol\":2080:2095  bool isTopDonor */\n      0x00\n        /* \"task2/BeggingContract.sol\":2098:2103  false */\n      0x00\n        /* \"task2/BeggingContract.sol\":2080:2103  bool isTopDonor = false */\n      swap1\n      pop\n        /* \"task2/BeggingContract.sol\":2158:2167  uint256 i */\n      0x00\n        /* \"task2/BeggingContract.sol\":2170:2171  0 */\n      0x00\n        /* \"task2/BeggingContract.sol\":2158:2171  uint256 i = 0 */\n      swap1\n      pop\n        /* \"task2/BeggingContract.sol\":2153:2431  for (uint256 i = 0; i < 3; i++) {... */\n    tag_95:\n        /* \"task2/BeggingContract.sol\":2177:2178  3 */\n      0x03\n        /* \"task2/BeggingContract.sol\":2173:2174  i */\n      dup2\n        /* \"task2/BeggingContract.sol\":2173:2178  i < 3 */\n      lt\n        /* \"task2/BeggingContract.sol\":2153:2431  for (uint256 i = 0; i < 3; i++) {... */\n      iszero\n      tag_96\n      jumpi\n        /* \"task2/BeggingContract.sol\":2219:2224  donor */\n      dup4\n        /* \"task2/BeggingContract.sol\":2203:2224  topDonors[i] == donor */\n      0xffffffffffffffffffffffffffffffffffffffff\n      and\n        /* \"task2/BeggingContract.sol\":2203:2212  topDonors */\n      0x03\n        /* \"task2/BeggingContract.sol\":2213:2214  i */\n      dup3\n        /* \"task2/BeggingContract.sol\":2203:2215  topDonors[i] */\n      0x03\n      dup2\n      lt\n      tag_98\n      jumpi\n      tag_99\n      tag_100\n      jump\t// in\n    tag_99:\n    tag_98:\n      add\n      0x00\n      swap1\n      sload\n      swap1\n      0x0100\n      exp\n      swap1\n      div\n      0xffffffffffffffffffffffffffffffffffffffff\n      and\n        /* \"task2/BeggingContract.sol\":2203:2224  topDonors[i] == donor */\n      0xffffffffffffffffffffffffffffffffffffffff\n      and\n      sub\n        /* \"task2/BeggingContract.sol\":2199:2299  if (topDonors[i] == donor) {... */\n      tag_102\n      jumpi\n        /* \"task2/BeggingContract.sol\":2257:2261  true */\n      0x01\n        /* \"task2/BeggingContract.sol\":2244:2261  isTopDonor = true */\n      swap2\n      pop\n        /* \"task2/BeggingContract.sol\":2279:2284  break */\n      jump(tag_96)\n        /* \"task2/BeggingContract.sol\":2199:2299  if (topDonors[i] == donor) {... */\n    tag_102:\n        /* \"task2/BeggingContract.sol\":2340:2341  0 */\n      0x00\n        /* \"task2/BeggingContract.sol\":2316:2342  topDonors[i] == address(0) */\n      0xffffffffffffffffffffffffffffffffffffffff\n      and\n        /* \"task2/BeggingContract.sol\":2316:2325  topDonors */\n      0x03\n        /* \"task2/BeggingContract.sol\":2326:2327  i */\n      dup3\n        /* \"task2/BeggingContract.sol\":2316:2328  topDonors[i] */\n      0x03\n      dup2\n      lt\n      tag_103\n      jumpi\n      tag_104\n      tag_100\n      jump\t// in\n    tag_104:\n    tag_103:\n      add\n      0x00\n      swap1\n      sload\n      swap1\n      0x0100\n      exp\n      swap1\n      div\n      0xffffffffffffffffffffffffffffffffffffffff\n      and\n        /* \"task2/BeggingContract.sol\":2316:2342  topDonors[i] == address(0) */\n      0xffffffffffffffffffffffffffffffffffffffff\n      and\n      sub\n        /* \"task2/BeggingContract.sol\":2312:2421  if (topDonors[i] == address(0)) {... */\n      tag_106\n      jumpi\n        /* \"task2/BeggingContract.sol\":2377:2382  donor */\n      dup4\n        /* \"task2/BeggingContract.sol\":2362:2371  topDonors */\n      0x03\n        /* \"task2/BeggingContract.sol\":2372:2373  i */\n      dup3\n        /* \"task2/BeggingContract.sol\":2362:2374  topDonors[i] */\n      0x03\n      dup2\n      lt\n      tag_107\n      jumpi\n      tag_108\n      tag_100\n      jump\t// in\n    tag_108:\n    tag_107:\n      add\n      0x00\n        /* \"task2/BeggingContract.sol\":2362:2382  topDonors[i] = donor */\n      0x0100\n      exp\n      dup2\n      sload\n      dup2\n      0xffffffffffffffffffffffffffffffffffffffff\n      mul\n      not\n      and\n      swap1\n      dup4\n      0xffffffffffffffffffffffffffffffffffffffff\n      and\n      mul\n      or\n      swap1\n      sstore\n      pop\n        /* \"task2/BeggingContract.sol\":2400:2407  return; */\n      pop\n      pop\n      pop\n      jump(tag_94)\n        /* \"task2/BeggingContract.sol\":2312:2421  if (topDonors[i] == address(0)) {... */\n    tag_106:\n        /* \"task2/BeggingContract.sol\":2180:2183  i++ */\n      dup1\n      dup1\n      0x01\n      add\n      swap2\n      pop\n      pop\n        /* \"task2/BeggingContract.sol\":2153:2431  for (uint256 i = 0; i < 3; i++) {... */\n      jump(tag_95)\n    tag_96:\n      pop\n        /* \"task2/BeggingContract.sol\":2484:2494  isTopDonor */\n      dup1\n        /* \"task2/BeggingContract.sol\":2480:2527  if (isTopDonor) {... */\n      iszero\n      tag_110\n      jumpi\n        /* \"task2/BeggingContract.sol\":2510:2517  return; */\n      pop\n      pop\n      jump(tag_94)\n        /* \"task2/BeggingContract.sol\":2480:2527  if (isTopDonor) {... */\n    tag_110:\n        /* \"task2/BeggingContract.sol\":2578:2587  uint256 i */\n      0x00\n        /* \"task2/BeggingContract.sol\":2590:2591  0 */\n      0x00\n        /* \"task2/BeggingContract.sol\":2578:2591  uint256 i = 0 */\n      swap1\n      pop\n        /* \"task2/BeggingContract.sol\":2573:2865  for (uint256 i = 0; i < 3; i++) {... */\n    tag_111:\n        /* \"task2/BeggingContract.sol\":2597:2598  3 */\n      0x03\n        /* \"task2/BeggingContract.sol\":2593:2594  i */\n      dup2\n        /* \"task2/BeggingContract.sol\":2593:2598  i < 3 */\n      lt\n        /* \"task2/BeggingContract.sol\":2573:2865  for (uint256 i = 0; i < 3; i++) {... */\n      iszero\n      tag_112\n      jumpi\n        /* \"task2/BeggingContract.sol\":2632:2642  _donations */\n      0x01\n        /* \"task2/BeggingContract.sol\":2632:2656  _donations[topDonors[i]] */\n      0x00\n        /* \"task2/BeggingContract.sol\":2643:2652  topDonors */\n      0x03\n        /* \"task2/BeggingContract.sol\":2653:2654  i */\n      dup4\n        /* \"task2/BeggingContract.sol\":2643:2655  topDonors[i] */\n      0x03\n      dup2\n      lt\n      tag_114\n      jumpi\n      tag_115\n      tag_100\n      jump\t// in\n    tag_115:\n    tag_114:\n      add\n      0x00\n      swap1\n      sload\n      swap1\n      0x0100\n      exp\n      swap1\n      div\n      0xffffffffffffffffffffffffffffffffffffffff\n      and\n        /* \"task2/BeggingContract.sol\":2632:2656  _donations[topDonors[i]] */\n      0xffffffffffffffffffffffffffffffffffffffff\n      and\n      0xffffffffffffffffffffffffffffffffffffffff\n      and\n      dup2\n      mstore\n      0x20\n      add\n      swap1\n      dup2\n      mstore\n      0x20\n      add\n      0x00\n      keccak256\n      sload\n        /* \"task2/BeggingContract.sol\":2623:2629  amount */\n      dup4\n        /* \"task2/BeggingContract.sol\":2623:2656  amount > _donations[topDonors[i]] */\n      gt\n        /* \"task2/BeggingContract.sol\":2619:2855  if (amount > _donations[topDonors[i]]) {... */\n      iszero\n      tag_117\n      jumpi\n        /* \"task2/BeggingContract.sol\":2681:2690  uint256 j */\n      0x00\n        /* \"task2/BeggingContract.sol\":2693:2694  2 */\n      0x02\n        /* \"task2/BeggingContract.sol\":2681:2694  uint256 j = 2 */\n      swap1\n      pop\n        /* \"task2/BeggingContract.sol\":2676:2780  for (uint256 j = 2; j > i; j--) {... */\n    tag_118:\n        /* \"task2/BeggingContract.sol\":2700:2701  i */\n      dup2\n        /* \"task2/BeggingContract.sol\":2696:2697  j */\n      dup2\n        /* \"task2/BeggingContract.sol\":2696:2701  j > i */\n      gt\n        /* \"task2/BeggingContract.sol\":2676:2780  for (uint256 j = 2; j > i; j--) {... */\n      iszero\n      tag_119\n      jumpi\n        /* \"task2/BeggingContract.sol\":2745:2754  topDonors */\n      0x03\n        /* \"task2/BeggingContract.sol\":2759:2760  1 */\n      0x01\n        /* \"task2/BeggingContract.sol\":2755:2756  j */\n      dup3\n        /* \"task2/BeggingContract.sol\":2755:2760  j - 1 */\n      tag_121\n      swap2\n      swap1\n      tag_122\n      jump\t// in\n    tag_121:\n        /* \"task2/BeggingContract.sol\":2745:2761  topDonors[j - 1] */\n      0x03\n      dup2\n      lt\n      tag_123\n      jumpi\n      tag_124\n      tag_100\n      jump\t// in\n    tag_124:\n    tag_123:\n      add\n      0x00\n      swap1\n      sload\n      swap1\n      0x0100\n      exp\n      swap1\n      div\n      0xffffffffffffffffffffffffffffffffffffffff\n      and\n        /* \"task2/BeggingContract.sol\":2730:2739  topDonors */\n      0x03\n        /* \"task2/BeggingContract.sol\":2740:2741  j */\n      dup3\n        /* \"task2/BeggingContract.sol\":2730:2742  topDonors[j] */\n      0x03\n      dup2\n      lt\n      tag_126\n      jumpi\n      tag_127\n      tag_100\n      jump\t// in\n    tag_127:\n    tag_126:\n      add\n      0x00\n        /* \"task2/BeggingContract.sol\":2730:2761  topDonors[j] = topDonors[j - 1] */\n      0x0100\n      exp\n      dup2\n      sload\n      dup2\n      0xffffffffffffffffffffffffffffffffffffffff\n      mul\n      not\n      and\n      swap1\n      dup4\n      0xffffffffffffffffffffffffffffffffffffffff\n      and\n      mul\n      or\n      swap1\n      sstore\n      pop\n        /* \"task2/BeggingContract.sol\":2703:2706  j-- */\n      dup1\n      dup1\n      tag_129\n      swap1\n      tag_130\n      jump\t// in\n    tag_129:\n      swap2\n      pop\n      pop\n        /* \"task2/BeggingContract.sol\":2676:2780  for (uint256 j = 2; j > i; j--) {... */\n      jump(tag_118)\n    tag_119:\n      pop\n        /* \"task2/BeggingContract.sol\":2812:2817  donor */\n      dup4\n        /* \"task2/BeggingContract.sol\":2797:2806  topDonors */\n      0x03\n        /* \"task2/BeggingContract.sol\":2807:2808  i */\n      dup3\n        /* \"task2/BeggingContract.sol\":2797:2809  topDonors[i] */\n      0x03\n      dup2\n      lt\n      tag_131\n      jumpi\n      tag_132\n      tag_100\n      jump\t// in\n    tag_132:\n    tag_131:\n      add\n      0x00\n        /* \"task2/BeggingContract.sol\":2797:2817  topDonors[i] = donor */\n      0x0100\n      exp\n      dup2\n      sload\n      dup2\n      0xffffffffffffffffffffffffffffffffffffffff\n      mul\n      not\n      and\n      swap1\n      dup4\n      0xffffffffffffffffffffffffffffffffffffffff\n      and\n      mul\n      or\n      swap1\n      sstore\n      pop\n        /* \"task2/BeggingContract.sol\":2835:2840  break */\n      jump(tag_112)\n        /* \"task2/BeggingContract.sol\":2619:2855  if (amount > _donations[topDonors[i]]) {... */\n    tag_117:\n        /* \"task2/BeggingContract.sol\":2600:2603  i++ */\n      dup1\n      dup1\n      0x01\n      add\n      swap2\n      pop\n      pop\n        /* \"task2/BeggingContract.sol\":2573:2865  for (uint256 i = 0; i < 3; i++) {... */\n      jump(tag_111)\n    tag_112:\n      pop\n        /* \"task2/BeggingContract.sol\":2026:2871  {... */\n      pop\n      pop\n        /* \"task2/BeggingContract.sol\":1978:2871  function updateTopDonnors(address donor) private{... */\n    tag_94:\n      pop\n      jump\t// out\n        /* \"@openzeppelin/contracts/utils/Context.sol\":656:752  function _msgSender() internal view virtual returns (address) {... */\n    tag_88:\n        /* \"@openzeppelin/contracts/utils/Context.sol\":709:716  address */\n      0x00\n        /* \"@openzeppelin/contracts/utils/Context.sol\":735:745  msg.sender */\n      caller\n        /* \"@openzeppelin/contracts/utils/Context.sol\":728:745  return msg.sender */\n      swap1\n      pop\n        /* \"@openzeppelin/contracts/utils/Context.sol\":656:752  function _msgSender() internal view virtual returns (address) {... */\n      swap1\n      jump\t// out\n    tag_64:\n      mload(0x40)\n      dup1\n      0x60\n      add\n      0x40\n      mstore\n      dup1\n      0x03\n      swap1\n      0x20\n      dup3\n      mul\n      dup1\n      calldatasize\n      dup4\n      calldatacopy\n      dup1\n      dup3\n      add\n      swap2\n      pop\n      pop\n      swap1\n      pop\n      pop\n      swap1\n      jump\t// out\n        /* \"#utility.yul\":88:205   */\n    tag_136:\n        /* \"#utility.yul\":197:198   */\n      0x00\n        /* \"#utility.yul\":194:195   */\n      0x00\n        /* \"#utility.yul\":187:199   */\n      revert\n        /* \"#utility.yul\":334:460   */\n    tag_138:\n        /* \"#utility.yul\":371:378   */\n      0x00\n        /* \"#utility.yul\":411:453   */\n      0xffffffffffffffffffffffffffffffffffffffff\n        /* \"#utility.yul\":404:409   */\n      dup3\n        /* \"#utility.yul\":400:454   */\n      and\n        /* \"#utility.yul\":389:454   */\n      swap1\n      pop\n        /* \"#utility.yul\":334:460   */\n      swap2\n      swap1\n      pop\n      jump\t// out\n        /* \"#utility.yul\":466:562   */\n    tag_139:\n        /* \"#utility.yul\":503:510   */\n      0x00\n        /* \"#utility.yul\":532:556   */\n      tag_166\n        /* \"#utility.yul\":550:555   */\n      dup3\n        /* \"#utility.yul\":532:556   */\n      tag_138\n      jump\t// in\n    tag_166:\n        /* \"#utility.yul\":521:556   */\n      swap1\n      pop\n        /* \"#utility.yul\":466:562   */\n      swap2\n      swap1\n      pop\n      jump\t// out\n        /* \"#utility.yul\":568:690   */\n    tag_140:\n        /* \"#utility.yul\":641:665   */\n      tag_168\n        /* \"#utility.yul\":659:664   */\n      dup2\n        /* \"#utility.yul\":641:665   */\n      tag_139\n      jump\t// in\n    tag_168:\n        /* \"#utility.yul\":634:639   */\n      dup2\n        /* \"#utility.yul\":631:666   */\n      eq\n        /* \"#utility.yul\":621:684   */\n      tag_169\n      jumpi\n        /* \"#utility.yul\":680:681   */\n      0x00\n        /* \"#utility.yul\":677:678   */\n      0x00\n        /* \"#utility.yul\":670:682   */\n      revert\n        /* \"#utility.yul\":621:684   */\n    tag_169:\n        /* \"#utility.yul\":568:690   */\n      pop\n      jump\t// out\n        /* \"#utility.yul\":696:835   */\n    tag_141:\n        /* \"#utility.yul\":742:747   */\n      0x00\n        /* \"#utility.yul\":780:786   */\n      dup2\n        /* \"#utility.yul\":767:787   */\n      calldataload\n        /* \"#utility.yul\":758:787   */\n      swap1\n      pop\n        /* \"#utility.yul\":796:829   */\n      tag_171\n        /* \"#utility.yul\":823:828   */\n      dup2\n        /* \"#utility.yul\":796:829   */\n      tag_140\n      jump\t// in\n    tag_171:\n        /* \"#utility.yul\":696:835   */\n      swap3\n      swap2\n      pop\n      pop\n      jump\t// out\n        /* \"#utility.yul\":841:1170   */\n    tag_16:\n        /* \"#utility.yul\":900:906   */\n      0x00\n        /* \"#utility.yul\":949:951   */\n      0x20\n        /* \"#utility.yul\":937:946   */\n      dup3\n        /* \"#utility.yul\":928:935   */\n      dup5\n        /* \"#utility.yul\":924:947   */\n      sub\n        /* \"#utility.yul\":920:952   */\n      slt\n        /* \"#utility.yul\":917:1036   */\n      iszero\n      tag_173\n      jumpi\n        /* \"#utility.yul\":955:1034   */\n      tag_174\n      tag_136\n      jump\t// in\n    tag_174:\n        /* \"#utility.yul\":917:1036   */\n    tag_173:\n        /* \"#utility.yul\":1075:1076   */\n      0x00\n        /* \"#utility.yul\":1100:1153   */\n      tag_175\n        /* \"#utility.yul\":1145:1152   */\n      dup5\n        /* \"#utility.yul\":1136:1142   */\n      dup3\n        /* \"#utility.yul\":1125:1134   */\n      dup6\n        /* \"#utility.yul\":1121:1143   */\n      add\n        /* \"#utility.yul\":1100:1153   */\n      tag_141\n      jump\t// in\n    tag_175:\n        /* \"#utility.yul\":1090:1153   */\n      swap2\n      pop\n        /* \"#utility.yul\":1046:1163   */\n      pop\n        /* \"#utility.yul\":841:1170   */\n      swap3\n      swap2\n      pop\n      pop\n      jump\t// out\n        /* \"#utility.yul\":1176:1253   */\n    tag_142:\n        /* \"#utility.yul\":1213:1220   */\n      0x00\n        /* \"#utility.yul\":1242:1247   */\n      dup2\n        /* \"#utility.yul\":1231:1247   */\n      swap1\n      pop\n        /* \"#utility.yul\":1176:1253   */\n      swap2\n      swap1\n      pop\n      jump\t// out\n        /* \"#utility.yul\":1259:1377   */\n    tag_143:\n        /* \"#utility.yul\":1346:1370   */\n      tag_178\n        /* \"#utility.yul\":1364:1369   */\n      dup2\n        /* \"#utility.yul\":1346:1370   */\n      tag_142\n      jump\t// in\n    tag_178:\n        /* \"#utility.yul\":1341:1344   */\n      dup3\n        /* \"#utility.yul\":1334:1371   */\n      mstore\n        /* \"#utility.yul\":1259:1377   */\n      pop\n      pop\n      jump\t// out\n        /* \"#utility.yul\":1383:1605   */\n    tag_19:\n        /* \"#utility.yul\":1476:1480   */\n      0x00\n        /* \"#utility.yul\":1514:1516   */\n      0x20\n        /* \"#utility.yul\":1503:1512   */\n      dup3\n        /* \"#utility.yul\":1499:1517   */\n      add\n        /* \"#utility.yul\":1491:1517   */\n      swap1\n      pop\n        /* \"#utility.yul\":1527:1598   */\n      tag_180\n        /* \"#utility.yul\":1595:1596   */\n      0x00\n        /* \"#utility.yul\":1584:1593   */\n      dup4\n        /* \"#utility.yul\":1580:1597   */\n      add\n        /* \"#utility.yul\":1571:1577   */\n      dup5\n        /* \"#utility.yul\":1527:1598   */\n      tag_143\n      jump\t// in\n    tag_180:\n        /* \"#utility.yul\":1383:1605   */\n      swap3\n      swap2\n      pop\n      pop\n      jump\t// out\n        /* \"#utility.yul\":1611:1729   */\n    tag_144:\n        /* \"#utility.yul\":1698:1722   */\n      tag_182\n        /* \"#utility.yul\":1716:1721   */\n      dup2\n        /* \"#utility.yul\":1698:1722   */\n      tag_139\n      jump\t// in\n    tag_182:\n        /* \"#utility.yul\":1693:1696   */\n      dup3\n        /* \"#utility.yul\":1686:1723   */\n      mstore\n        /* \"#utility.yul\":1611:1729   */\n      pop\n      pop\n      jump\t// out\n        /* \"#utility.yul\":1735:1957   */\n    tag_27:\n        /* \"#utility.yul\":1828:1832   */\n      0x00\n        /* \"#utility.yul\":1866:1868   */\n      0x20\n        /* \"#utility.yul\":1855:1864   */\n      dup3\n        /* \"#utility.yul\":1851:1869   */\n      add\n        /* \"#utility.yul\":1843:1869   */\n      swap1\n      pop\n        /* \"#utility.yul\":1879:1950   */\n      tag_184\n        /* \"#utility.yul\":1947:1948   */\n      0x00\n        /* \"#utility.yul\":1936:1945   */\n      dup4\n        /* \"#utility.yul\":1932:1949   */\n      add\n        /* \"#utility.yul\":1923:1929   */\n      dup5\n        /* \"#utility.yul\":1879:1950   */\n      tag_144\n      jump\t// in\n    tag_184:\n        /* \"#utility.yul\":1735:1957   */\n      swap3\n      swap2\n      pop\n      pop\n      jump\t// out\n        /* \"#utility.yul\":1963:2067   */\n    tag_145:\n        /* \"#utility.yul\":2028:2034   */\n      0x00\n        /* \"#utility.yul\":2056:2060   */\n      0x03\n        /* \"#utility.yul\":2046:2060   */\n      swap1\n      pop\n        /* \"#utility.yul\":1963:2067   */\n      swap2\n      swap1\n      pop\n      jump\t// out\n        /* \"#utility.yul\":2073:2216   */\n    tag_146:\n        /* \"#utility.yul\":2170:2181   */\n      0x00\n        /* \"#utility.yul\":2207:2210   */\n      dup2\n        /* \"#utility.yul\":2192:2210   */\n      swap1\n      pop\n        /* \"#utility.yul\":2073:2216   */\n      swap3\n      swap2\n      pop\n      pop\n      jump\t// out\n        /* \"#utility.yul\":2222:2320   */\n    tag_147:\n        /* \"#utility.yul\":2287:2291   */\n      0x00\n        /* \"#utility.yul\":2310:2313   */\n      dup2\n        /* \"#utility.yul\":2302:2313   */\n      swap1\n      pop\n        /* \"#utility.yul\":2222:2320   */\n      swap2\n      swap1\n      pop\n      jump\t// out\n        /* \"#utility.yul\":2326:2434   */\n    tag_148:\n        /* \"#utility.yul\":2403:2427   */\n      tag_189\n        /* \"#utility.yul\":2421:2426   */\n      dup2\n        /* \"#utility.yul\":2403:2427   */\n      tag_139\n      jump\t// in\n    tag_189:\n        /* \"#utility.yul\":2398:2401   */\n      dup3\n        /* \"#utility.yul\":2391:2428   */\n      mstore\n        /* \"#utility.yul\":2326:2434   */\n      pop\n      pop\n      jump\t// out\n        /* \"#utility.yul\":2440:2619   */\n    tag_149:\n        /* \"#utility.yul\":2509:2519   */\n      0x00\n        /* \"#utility.yul\":2530:2576   */\n      tag_191\n        /* \"#utility.yul\":2572:2575   */\n      dup4\n        /* \"#utility.yul\":2564:2570   */\n      dup4\n        /* \"#utility.yul\":2530:2576   */\n      tag_148\n      jump\t// in\n    tag_191:\n        /* \"#utility.yul\":2608:2612   */\n      0x20\n        /* \"#utility.yul\":2603:2606   */\n      dup4\n        /* \"#utility.yul\":2599:2613   */\n      add\n        /* \"#utility.yul\":2585:2613   */\n      swap1\n      pop\n        /* \"#utility.yul\":2440:2619   */\n      swap3\n      swap2\n      pop\n      pop\n      jump\t// out\n        /* \"#utility.yul\":2625:2736   */\n    tag_150:\n        /* \"#utility.yul\":2693:2697   */\n      0x00\n        /* \"#utility.yul\":2725:2729   */\n      0x20\n        /* \"#utility.yul\":2720:2723   */\n      dup3\n        /* \"#utility.yul\":2716:2730   */\n      add\n        /* \"#utility.yul\":2708:2730   */\n      swap1\n      pop\n        /* \"#utility.yul\":2625:2736   */\n      swap2\n      swap1\n      pop\n      jump\t// out\n        /* \"#utility.yul\":2774:3468   */\n    tag_151:\n        /* \"#utility.yul\":2910:2962   */\n      tag_194\n        /* \"#utility.yul\":2956:2961   */\n      dup2\n        /* \"#utility.yul\":2910:2962   */\n      tag_145\n      jump\t// in\n    tag_194:\n        /* \"#utility.yul\":2978:3062   */\n      tag_195\n        /* \"#utility.yul\":3055:3061   */\n      dup2\n        /* \"#utility.yul\":3050:3053   */\n      dup5\n        /* \"#utility.yul\":2978:3062   */\n      tag_146\n      jump\t// in\n    tag_195:\n        /* \"#utility.yul\":2971:3062   */\n      swap3\n      pop\n        /* \"#utility.yul\":3086:3140   */\n      tag_196\n        /* \"#utility.yul\":3134:3139   */\n      dup3\n        /* \"#utility.yul\":3086:3140   */\n      tag_147\n      jump\t// in\n    tag_196:\n        /* \"#utility.yul\":3163:3170   */\n      dup1\n        /* \"#utility.yul\":3194:3195   */\n      0x00\n        /* \"#utility.yul\":3179:3461   */\n    tag_197:\n        /* \"#utility.yul\":3204:3210   */\n      dup4\n        /* \"#utility.yul\":3201:3202   */\n      dup2\n        /* \"#utility.yul\":3198:3211   */\n      lt\n        /* \"#utility.yul\":3179:3461   */\n      iszero\n      tag_199\n      jumpi\n        /* \"#utility.yul\":3280:3286   */\n      dup2\n        /* \"#utility.yul\":3274:3287   */\n      mload\n        /* \"#utility.yul\":3307:3370   */\n      tag_200\n        /* \"#utility.yul\":3366:3369   */\n      dup8\n        /* \"#utility.yul\":3351:3364   */\n      dup3\n        /* \"#utility.yul\":3307:3370   */\n      tag_149\n      jump\t// in\n    tag_200:\n        /* \"#utility.yul\":3300:3370   */\n      swap7\n      pop\n        /* \"#utility.yul\":3393:3451   */\n      tag_201\n        /* \"#utility.yul\":3444:3450   */\n      dup4\n        /* \"#utility.yul\":3393:3451   */\n      tag_150\n      jump\t// in\n    tag_201:\n        /* \"#utility.yul\":3383:3451   */\n      swap3\n      pop\n        /* \"#utility.yul\":3239:3461   */\n      pop\n        /* \"#utility.yul\":3226:3227   */\n      0x01\n        /* \"#utility.yul\":3223:3224   */\n      dup2\n        /* \"#utility.yul\":3219:3228   */\n      add\n        /* \"#utility.yul\":3214:3228   */\n      swap1\n      pop\n        /* \"#utility.yul\":3179:3461   */\n      jump(tag_197)\n    tag_199:\n        /* \"#utility.yul\":3183:3197   */\n      pop\n        /* \"#utility.yul\":2886:3468   */\n      pop\n      pop\n      pop\n        /* \"#utility.yul\":2774:3468   */\n      pop\n      pop\n      jump\t// out\n        /* \"#utility.yul\":3474:3788   */\n    tag_32:\n        /* \"#utility.yul\":3613:3617   */\n      0x00\n        /* \"#utility.yul\":3651:3653   */\n      0x60\n        /* \"#utility.yul\":3640:3649   */\n      dup3\n        /* \"#utility.yul\":3636:3654   */\n      add\n        /* \"#utility.yul\":3628:3654   */\n      swap1\n      pop\n        /* \"#utility.yul\":3664:3781   */\n      tag_203\n        /* \"#utility.yul\":3778:3779   */\n      0x00\n        /* \"#utility.yul\":3767:3776   */\n      dup4\n        /* \"#utility.yul\":3763:3780   */\n      add\n        /* \"#utility.yul\":3754:3760   */\n      dup5\n        /* \"#utility.yul\":3664:3781   */\n      tag_151\n      jump\t// in\n    tag_203:\n        /* \"#utility.yul\":3474:3788   */\n      swap3\n      swap2\n      pop\n      pop\n      jump\t// out\n        /* \"#utility.yul\":3794:3963   */\n    tag_152:\n        /* \"#utility.yul\":3878:3889   */\n      0x00\n        /* \"#utility.yul\":3912:3918   */\n      dup3\n        /* \"#utility.yul\":3907:3910   */\n      dup3\n        /* \"#utility.yul\":3900:3919   */\n      mstore\n        /* \"#utility.yul\":3952:3956   */\n      0x20\n        /* \"#utility.yul\":3947:3950   */\n      dup3\n        /* \"#utility.yul\":3943:3957   */\n      add\n        /* \"#utility.yul\":3928:3957   */\n      swap1\n      pop\n        /* \"#utility.yul\":3794:3963   */\n      swap3\n      swap2\n      pop\n      pop\n      jump\t// out\n        /* \"#utility.yul\":3969:4130   */\n    tag_153:\n        /* \"#utility.yul\":4109:4122   */\n      0x6e6f2062616c616e636521000000000000000000000000000000000000000000\n        /* \"#utility.yul\":4105:4106   */\n      0x00\n        /* \"#utility.yul\":4097:4103   */\n      dup3\n        /* \"#utility.yul\":4093:4107   */\n      add\n        /* \"#utility.yul\":4086:4123   */\n      mstore\n        /* \"#utility.yul\":3969:4130   */\n      pop\n      jump\t// out\n        /* \"#utility.yul\":4136:4502   */\n    tag_154:\n        /* \"#utility.yul\":4278:4281   */\n      0x00\n        /* \"#utility.yul\":4299:4366   */\n      tag_207\n        /* \"#utility.yul\":4363:4365   */\n      0x0b\n        /* \"#utility.yul\":4358:4361   */\n      dup4\n        /* \"#utility.yul\":4299:4366   */\n      tag_152\n      jump\t// in\n    tag_207:\n        /* \"#utility.yul\":4292:4366   */\n      swap2\n      pop\n        /* \"#utility.yul\":4375:4468   */\n      tag_208\n        /* \"#utility.yul\":4464:4467   */\n      dup3\n        /* \"#utility.yul\":4375:4468   */\n      tag_153\n      jump\t// in\n    tag_208:\n        /* \"#utility.yul\":4493:4495   */\n      0x20\n        /* \"#utility.yul\":4488:4491   */\n      dup3\n        /* \"#utility.yul\":4484:4496   */\n      add\n        /* \"#utility.yul\":4477:4496   */\n      swap1\n      pop\n        /* \"#utility.yul\":4136:4502   */\n      swap2\n      swap1\n      pop\n      jump\t// out\n        /* \"#utility.yul\":4508:4927   */\n    tag_49:\n        /* \"#utility.yul\":4674:4678   */\n      0x00\n        /* \"#utility.yul\":4712:4714   */\n      0x20\n        /* \"#utility.yul\":4701:4710   */\n      dup3\n        /* \"#utility.yul\":4697:4715   */\n      add\n        /* \"#utility.yul\":4689:4715   */\n      swap1\n      pop\n        /* \"#utility.yul\":4761:4770   */\n      dup2\n        /* \"#utility.yul\":4755:4759   */\n      dup2\n        /* \"#utility.yul\":4751:4771   */\n      sub\n        /* \"#utility.yul\":4747:4748   */\n      0x00\n        /* \"#utility.yul\":4736:4745   */\n      dup4\n        /* \"#utility.yul\":4732:4749   */\n      add\n        /* \"#utility.yul\":4725:4772   */\n      mstore\n        /* \"#utility.yul\":4789:4920   */\n      tag_210\n        /* \"#utility.yul\":4915:4919   */\n      dup2\n        /* \"#utility.yul\":4789:4920   */\n      tag_154\n      jump\t// in\n    tag_210:\n        /* \"#utility.yul\":4781:4920   */\n      swap1\n      pop\n        /* \"#utility.yul\":4508:4927   */\n      swap2\n      swap1\n      pop\n      jump\t// out\n        /* \"#utility.yul\":4933:5265   */\n    tag_55:\n        /* \"#utility.yul\":5054:5058   */\n      0x00\n        /* \"#utility.yul\":5092:5094   */\n      0x40\n        /* \"#utility.yul\":5081:5090   */\n      dup3\n        /* \"#utility.yul\":5077:5095   */\n      add\n        /* \"#utility.yul\":5069:5095   */\n      swap1\n      pop\n        /* \"#utility.yul\":5105:5176   */\n      tag_212\n        /* \"#utility.yul\":5173:5174   */\n      0x00\n        /* \"#utility.yul\":5162:5171   */\n      dup4\n        /* \"#utility.yul\":5158:5175   */\n      add\n        /* \"#utility.yul\":5149:5155   */\n      dup6\n        /* \"#utility.yul\":5105:5176   */\n      tag_143\n      jump\t// in\n    tag_212:\n        /* \"#utility.yul\":5186:5258   */\n      tag_213\n        /* \"#utility.yul\":5254:5256   */\n      0x20\n        /* \"#utility.yul\":5243:5252   */\n      dup4\n        /* \"#utility.yul\":5239:5257   */\n      add\n        /* \"#utility.yul\":5230:5236   */\n      dup5\n        /* \"#utility.yul\":5186:5258   */\n      tag_143\n      jump\t// in\n    tag_213:\n        /* \"#utility.yul\":4933:5265   */\n      swap4\n      swap3\n      pop\n      pop\n      pop\n      jump\t// out\n        /* \"#utility.yul\":5271:5496   */\n    tag_155:\n        /* \"#utility.yul\":5411:5445   */\n      0x446f6e6174696f6e20616d6f756e74206d757374206265206772656174657220\n        /* \"#utility.yul\":5407:5408   */\n      0x00\n        /* \"#utility.yul\":5399:5405   */\n      dup3\n        /* \"#utility.yul\":5395:5409   */\n      add\n        /* \"#utility.yul\":5388:5446   */\n      mstore\n        /* \"#utility.yul\":5480:5488   */\n      0x7468616e20300000000000000000000000000000000000000000000000000000\n        /* \"#utility.yul\":5475:5477   */\n      0x20\n        /* \"#utility.yul\":5467:5473   */\n      dup3\n        /* \"#utility.yul\":5463:5478   */\n      add\n        /* \"#utility.yul\":5456:5489   */\n      mstore\n        /* \"#utility.yul\":5271:5496   */\n      pop\n      jump\t// out\n        /* \"#utility.yul\":5502:5868   */\n    tag_156:\n        /* \"#utility.yul\":5644:5647   */\n      0x00\n        /* \"#utility.yul\":5665:5732   */\n      tag_216\n        /* \"#utility.yul\":5729:5731   */\n      0x26\n        /* \"#utility.yul\":5724:5727   */\n      dup4\n        /* \"#utility.yul\":5665:5732   */\n      tag_152\n      jump\t// in\n    tag_216:\n        /* \"#utility.yul\":5658:5732   */\n      swap2\n      pop\n        /* \"#utility.yul\":5741:5834   */\n      tag_217\n        /* \"#utility.yul\":5830:5833   */\n      dup3\n        /* \"#utility.yul\":5741:5834   */\n      tag_155\n      jump\t// in\n    tag_217:\n        /* \"#utility.yul\":5859:5861   */\n      0x40\n        /* \"#utility.yul\":5854:5857   */\n      dup3\n        /* \"#utility.yul\":5850:5862   */\n      add\n        /* \"#utility.yul\":5843:5862   */\n      swap1\n      pop\n        /* \"#utility.yul\":5502:5868   */\n      swap2\n      swap1\n      pop\n      jump\t// out\n        /* \"#utility.yul\":5874:6293   */\n    tag_71:\n        /* \"#utility.yul\":6040:6044   */\n      0x00\n        /* \"#utility.yul\":6078:6080   */\n      0x20\n        /* \"#utility.yul\":6067:6076   */\n      dup3\n        /* \"#utility.yul\":6063:6081   */\n      add\n        /* \"#utility.yul\":6055:6081   */\n      swap1\n      pop\n        /* \"#utility.yul\":6127:6136   */\n      dup2\n        /* \"#utility.yul\":6121:6125   */\n      dup2\n        /* \"#utility.yul\":6117:6137   */\n      sub\n        /* \"#utility.yul\":6113:6114   */\n      0x00\n        /* \"#utility.yul\":6102:6111   */\n      dup4\n        /* \"#utility.yul\":6098:6115   */\n      add\n        /* \"#utility.yul\":6091:6138   */\n      mstore\n        /* \"#utility.yul\":6155:6286   */\n      tag_219\n        /* \"#utility.yul\":6281:6285   */\n      dup2\n        /* \"#utility.yul\":6155:6286   */\n      tag_156\n      jump\t// in\n    tag_219:\n        /* \"#utility.yul\":6147:6286   */\n      swap1\n      pop\n        /* \"#utility.yul\":5874:6293   */\n      swap2\n      swap1\n      pop\n      jump\t// out\n        /* \"#utility.yul\":6299:6474   */\n    tag_157:\n        /* \"#utility.yul\":6439:6466   */\n      0x446f6e6174696f6e20706572696f642068617320656e64656400000000000000\n        /* \"#utility.yul\":6435:6436   */\n      0x00\n        /* \"#utility.yul\":6427:6433   */\n      dup3\n        /* \"#utility.yul\":6423:6437   */\n      add\n        /* \"#utility.yul\":6416:6467   */\n      mstore\n        /* \"#utility.yul\":6299:6474   */\n      pop\n      jump\t// out\n        /* \"#utility.yul\":6480:6846   */\n    tag_158:\n        /* \"#utility.yul\":6622:6625   */\n      0x00\n        /* \"#utility.yul\":6643:6710   */\n      tag_222\n        /* \"#utility.yul\":6707:6709   */\n      0x19\n        /* \"#utility.yul\":6702:6705   */\n      dup4\n        /* \"#utility.yul\":6643:6710   */\n      tag_152\n      jump\t// in\n    tag_222:\n        /* \"#utility.yul\":6636:6710   */\n      swap2\n      pop\n        /* \"#utility.yul\":6719:6812   */\n      tag_223\n        /* \"#utility.yul\":6808:6811   */\n      dup3\n        /* \"#utility.yul\":6719:6812   */\n      tag_157\n      jump\t// in\n    tag_223:\n        /* \"#utility.yul\":6837:6839   */\n      0x20\n        /* \"#utility.yul\":6832:6835   */\n      dup3\n        /* \"#utility.yul\":6828:6840   */\n      add\n        /* \"#utility.yul\":6821:6840   */\n      swap1\n      pop\n        /* \"#utility.yul\":6480:6846   */\n      swap2\n      swap1\n      pop\n      jump\t// out\n        /* \"#utility.yul\":6852:7271   */\n    tag_74:\n        /* \"#utility.yul\":7018:7022   */\n      0x00\n        /* \"#utility.yul\":7056:7058   */\n      0x20\n        /* \"#utility.yul\":7045:7054   */\n      dup3\n        /* \"#utility.yul\":7041:7059   */\n      add\n        /* \"#utility.yul\":7033:7059   */\n      swap1\n      pop\n        /* \"#utility.yul\":7105:7114   */\n      dup2\n        /* \"#utility.yul\":7099:7103   */\n      dup2\n        /* \"#utility.yul\":7095:7115   */\n      sub\n        /* \"#utility.yul\":7091:7092   */\n      0x00\n        /* \"#utility.yul\":7080:7089   */\n      dup4\n        /* \"#utility.yul\":7076:7093   */\n      add\n        /* \"#utility.yul\":7069:7116   */\n      mstore\n        /* \"#utility.yul\":7133:7264   */\n      tag_225\n        /* \"#utility.yul\":7259:7263   */\n      dup2\n        /* \"#utility.yul\":7133:7264   */\n      tag_158\n      jump\t// in\n    tag_225:\n        /* \"#utility.yul\":7125:7264   */\n      swap1\n      pop\n        /* \"#utility.yul\":6852:7271   */\n      swap2\n      swap1\n      pop\n      jump\t// out\n        /* \"#utility.yul\":7277:7457   */\n    tag_159:\n        /* \"#utility.yul\":7325:7402   */\n      0x4e487b7100000000000000000000000000000000000000000000000000000000\n        /* \"#utility.yul\":7322:7323   */\n      0x00\n        /* \"#utility.yul\":7315:7403   */\n      mstore\n        /* \"#utility.yul\":7422:7426   */\n      0x11\n        /* \"#utility.yul\":7419:7420   */\n      0x04\n        /* \"#utility.yul\":7412:7427   */\n      mstore\n        /* \"#utility.yul\":7446:7450   */\n      0x24\n        /* \"#utility.yul\":7443:7444   */\n      0x00\n        /* \"#utility.yul\":7436:7451   */\n      revert\n        /* \"#utility.yul\":7463:7654   */\n    tag_76:\n        /* \"#utility.yul\":7503:7506   */\n      0x00\n        /* \"#utility.yul\":7522:7542   */\n      tag_228\n        /* \"#utility.yul\":7540:7541   */\n      dup3\n        /* \"#utility.yul\":7522:7542   */\n      tag_142\n      jump\t// in\n    tag_228:\n        /* \"#utility.yul\":7517:7542   */\n      swap2\n      pop\n        /* \"#utility.yul\":7556:7576   */\n      tag_229\n        /* \"#utility.yul\":7574:7575   */\n      dup4\n        /* \"#utility.yul\":7556:7576   */\n      tag_142\n      jump\t// in\n    tag_229:\n        /* \"#utility.yul\":7551:7576   */\n      swap3\n      pop\n        /* \"#utility.yul\":7599:7600   */\n      dup3\n        /* \"#utility.yul\":7596:7597   */\n      dup3\n        /* \"#utility.yul\":7592:7601   */\n      add\n        /* \"#utility.yul\":7585:7601   */\n      swap1\n      pop\n        /* \"#utility.yul\":7620:7623   */\n      dup1\n        /* \"#utility.yul\":7617:7618   */\n      dup3\n        /* \"#utility.yul\":7614:7624   */\n      gt\n        /* \"#utility.yul\":7611:7647   */\n      iszero\n      tag_230\n      jumpi\n        /* \"#utility.yul\":7627:7645   */\n      tag_231\n      tag_159\n      jump\t// in\n    tag_231:\n        /* \"#utility.yul\":7611:7647   */\n    tag_230:\n        /* \"#utility.yul\":7463:7654   */\n      swap3\n      swap2\n      pop\n      pop\n      jump\t// out\n        /* \"#utility.yul\":7660:7840   */\n    tag_100:\n        /* \"#utility.yul\":7708:7785   */\n      0x4e487b7100000000000000000000000000000000000000000000000000000000\n        /* \"#utility.yul\":7705:7706   */\n      0x00\n        /* \"#utility.yul\":7698:7786   */\n      mstore\n        /* \"#utility.yul\":7805:7809   */\n      0x32\n        /* \"#utility.yul\":7802:7803   */\n      0x04\n        /* \"#utility.yul\":7795:7810   */\n      mstore\n        /* \"#utility.yul\":7829:7833   */\n      0x24\n        /* \"#utility.yul\":7826:7827   */\n      0x00\n        /* \"#utility.yul\":7819:7834   */\n      revert\n        /* \"#utility.yul\":7846:8040   */\n    tag_122:\n        /* \"#utility.yul\":7886:7890   */\n      0x00\n        /* \"#utility.yul\":7906:7926   */\n      tag_234\n        /* \"#utility.yul\":7924:7925   */\n      dup3\n        /* \"#utility.yul\":7906:7926   */\n      tag_142\n      jump\t// in\n    tag_234:\n        /* \"#utility.yul\":7901:7926   */\n      swap2\n      pop\n        /* \"#utility.yul\":7940:7960   */\n      tag_235\n        /* \"#utility.yul\":7958:7959   */\n      dup4\n        /* \"#utility.yul\":7940:7960   */\n      tag_142\n      jump\t// in\n    tag_235:\n        /* \"#utility.yul\":7935:7960   */\n      swap3\n      pop\n        /* \"#utility.yul\":7984:7985   */\n      dup3\n        /* \"#utility.yul\":7981:7982   */\n      dup3\n        /* \"#utility.yul\":7977:7986   */\n      sub\n        /* \"#utility.yul\":7969:7986   */\n      swap1\n      pop\n        /* \"#utility.yul\":8008:8009   */\n      dup2\n        /* \"#utility.yul\":8002:8006   */\n      dup2\n        /* \"#utility.yul\":7999:8010   */\n      gt\n        /* \"#utility.yul\":7996:8033   */\n      iszero\n      tag_236\n      jumpi\n        /* \"#utility.yul\":8013:8031   */\n      tag_237\n      tag_159\n      jump\t// in\n    tag_237:\n        /* \"#utility.yul\":7996:8033   */\n    tag_236:\n        /* \"#utility.yul\":7846:8040   */\n      swap3\n      swap2\n      pop\n      pop\n      jump\t// out\n        /* \"#utility.yul\":8046:8217   */\n    tag_130:\n        /* \"#utility.yul\":8085:8088   */\n      0x00\n        /* \"#utility.yul\":8108:8132   */\n      tag_239\n        /* \"#utility.yul\":8126:8131   */\n      dup3\n        /* \"#utility.yul\":8108:8132   */\n      tag_142\n      jump\t// in\n    tag_239:\n        /* \"#utility.yul\":8099:8132   */\n      swap2\n      pop\n        /* \"#utility.yul\":8154:8158   */\n      0x00\n        /* \"#utility.yul\":8147:8152   */\n      dup3\n        /* \"#utility.yul\":8144:8159   */\n      sub\n        /* \"#utility.yul\":8141:8182   */\n      tag_240\n      jumpi\n        /* \"#utility.yul\":8162:8180   */\n      tag_241\n      tag_159\n      jump\t// in\n    tag_241:\n        /* \"#utility.yul\":8141:8182   */\n    tag_240:\n        /* \"#utility.yul\":8209:8210   */\n      0x01\n        /* \"#utility.yul\":8202:8207   */\n      dup3\n        /* \"#utility.yul\":8198:8211   */\n      sub\n        /* \"#utility.yul\":8191:8211   */\n      swap1\n      pop\n        /* \"#utility.yul\":8046:8217   */\n      swap2\n      swap1\n      pop\n      jump\t// out\n\n    auxdata: 0xa264697066735822122079d4349efc7044006f3d5c7712d80bee6145711bd20f9f3129b70d99f0601b8d64736f6c634300081e0033\n}\n",
				"bytecode": {
					"linkReferences": {},
					"object": "608060405234801561000f575f5ffd5b50335f73ffffffffffffffffffffffffffffffffffffffff168173ffffffffffffffffffffffffffffffffffffffff1603610081575f6040517f1e4fbdf700000000000000000000000000000000000000000000000000000000815260040161007891906101ab565b60405180910390fd5b610090816100ab60201b60201c565b506203f480426100a091906101fa565b60028190555061022d565b5f5f5f9054906101000a900473ffffffffffffffffffffffffffffffffffffffff169050815f5f6101000a81548173ffffffffffffffffffffffffffffffffffffffff021916908373ffffffffffffffffffffffffffffffffffffffff1602179055508173ffffffffffffffffffffffffffffffffffffffff168173ffffffffffffffffffffffffffffffffffffffff167f8be0079c531659141344cd1fd0a4f28419497f9722a3daafe3b4186f6b6457e060405160405180910390a35050565b5f73ffffffffffffffffffffffffffffffffffffffff82169050919050565b5f6101958261016c565b9050919050565b6101a58161018b565b82525050565b5f6020820190506101be5f83018461019c565b92915050565b5f819050919050565b7f4e487b71000000000000000000000000000000000000000000000000000000005f52601160045260245ffd5b5f610204826101c4565b915061020f836101c4565b9250828201905080821115610227576102266101cd565b5b92915050565b610e4a8061023a5f395ff3fe60806040526004361061007a575f3560e01c8063d6387ed81161004d578063d6387ed814610104578063ed88c68e1461012e578063f12a4a5314610138578063f2fde38b146101625761007a565b80633ccfd60b1461007e578063410a1d3214610088578063715018a6146100c45780638da5cb5b146100da575b5f5ffd5b61008661018a565b005b348015610093575f5ffd5b506100ae60048036038101906100a99190610a56565b61027d565b6040516100bb9190610a99565b60405180910390f35b3480156100cf575f5ffd5b506100d86102c3565b005b3480156100e5575f5ffd5b506100ee6102d6565b6040516100fb9190610ac1565b60405180910390f35b34801561010f575f5ffd5b506101186102fd565b6040516101259190610b7f565b60405180910390f35b61013661037c565b005b348015610143575f5ffd5b5061014c6104b5565b6040516101599190610a99565b60405180910390f35b34801561016d575f5ffd5b5061018860048036038101906101839190610a56565b6104bb565b005b61019261053f565b5f4790505f81116101d8576040517f08c379a00000000000000000000000000000000000000000000000000000000081526004016101cf90610bf2565b60405180910390fd5b6101e06102d6565b73ffffffffffffffffffffffffffffffffffffffff166108fc8290811502906040515f60405180830381858888f19350505050158015610222573d5f5f3e3d5ffd5b5061022b6102d6565b73ffffffffffffffffffffffffffffffffffffffff167f106aac375bbcf013d1e52338bbf9e740009a1a3a6869f8daa1b72aa1620f5fec8242604051610272929190610c10565b60405180910390a250565b5f60015f8373ffffffffffffffffffffffffffffffffffffffff1673ffffffffffffffffffffffffffffffffffffffff1681526020019081526020015f20549050919050565b6102cb61053f565b6102d45f6105c6565b565b5f5f5f9054906101000a900473ffffffffffffffffffffffffffffffffffffffff16905090565b6103056109d6565b60038080602002604051908101604052809291908260038015610372576020028201915b815f9054906101000a900473ffffffffffffffffffffffffffffffffffffffff1673ffffffffffffffffffffffffffffffffffffffff1681526020019060010190808311610329575b5050505050905090565b5f3490505f81116103c2576040517f08c379a00000000000000000000000000000000000000000000000000000000081526004016103b990610ca7565b60405180910390fd5b6002544210610406576040517f08c379a00000000000000000000000000000000000000000000000000000000081526004016103fd90610d0f565b60405180910390fd5b8060015f3373ffffffffffffffffffffffffffffffffffffffff1673ffffffffffffffffffffffffffffffffffffffff1681526020019081526020015f205f8282546104529190610d5a565b9250508190555061046233610687565b3373ffffffffffffffffffffffffffffffffffffffff167f106aac375bbcf013d1e52338bbf9e740009a1a3a6869f8daa1b72aa1620f5fec34426040516104aa929190610c10565b60405180910390a250565b60025481565b6104c361053f565b5f73ffffffffffffffffffffffffffffffffffffffff168173ffffffffffffffffffffffffffffffffffffffff1603610533575f6040517f1e4fbdf700000000000000000000000000000000000000000000000000000000815260040161052a9190610ac1565b60405180910390fd5b61053c816105c6565b50565b6105476109cf565b73ffffffffffffffffffffffffffffffffffffffff166105656102d6565b73ffffffffffffffffffffffffffffffffffffffff16146105c4576105886109cf565b6040517f118cdaa70000000000000000000000000000000000000000000000000000000081526004016105bb9190610ac1565b60405180910390fd5b565b5f5f5f9054906101000a900473ffffffffffffffffffffffffffffffffffffffff169050815f5f6101000a81548173ffffffffffffffffffffffffffffffffffffffff021916908373ffffffffffffffffffffffffffffffffffffffff1602179055508173ffffffffffffffffffffffffffffffffffffffff168173ffffffffffffffffffffffffffffffffffffffff167f8be0079c531659141344cd1fd0a4f28419497f9722a3daafe3b4186f6b6457e060405160405180910390a35050565b5f60015f8373ffffffffffffffffffffffffffffffffffffffff1673ffffffffffffffffffffffffffffffffffffffff1681526020019081526020015f205490505f5f90505f5f90505b6003811015610819578373ffffffffffffffffffffffffffffffffffffffff166003826003811061070557610704610d8d565b5b015f9054906101000a900473ffffffffffffffffffffffffffffffffffffffff1673ffffffffffffffffffffffffffffffffffffffff160361074a5760019150610819565b5f73ffffffffffffffffffffffffffffffffffffffff166003826003811061077557610774610d8d565b5b015f9054906101000a900473ffffffffffffffffffffffffffffffffffffffff1673ffffffffffffffffffffffffffffffffffffffff160361080c5783600382600381106107c6576107c5610d8d565b5b015f6101000a81548173ffffffffffffffffffffffffffffffffffffffff021916908373ffffffffffffffffffffffffffffffffffffffff1602179055505050506109cc565b80806001019150506106d1565b5080156108275750506109cc565b5f5f90505b60038110156109c85760015f6003836003811061084c5761084b610d8d565b5b015f9054906101000a900473ffffffffffffffffffffffffffffffffffffffff1673ffffffffffffffffffffffffffffffffffffffff1673ffffffffffffffffffffffffffffffffffffffff1681526020019081526020015f20548311156109bb575f600290505b818111156109625760036001826108cb9190610dba565b600381106108dc576108db610d8d565b5b015f9054906101000a900473ffffffffffffffffffffffffffffffffffffffff166003826003811061091157610910610d8d565b5b015f6101000a81548173ffffffffffffffffffffffffffffffffffffffff021916908373ffffffffffffffffffffffffffffffffffffffff160217905550808061095a90610ded565b9150506108b4565b50836003826003811061097857610977610d8d565b5b015f6101000a81548173ffffffffffffffffffffffffffffffffffffffff021916908373ffffffffffffffffffffffffffffffffffffffff1602179055506109c8565b808060010191505061082c565b5050505b50565b5f33905090565b6040518060600160405280600390602082028036833780820191505090505090565b5f5ffd5b5f73ffffffffffffffffffffffffffffffffffffffff82169050919050565b5f610a25826109fc565b9050919050565b610a3581610a1b565b8114610a3f575f5ffd5b50565b5f81359050610a5081610a2c565b92915050565b5f60208284031215610a6b57610a6a6109f8565b5b5f610a7884828501610a42565b91505092915050565b5f819050919050565b610a9381610a81565b82525050565b5f602082019050610aac5f830184610a8a565b92915050565b610abb81610a1b565b82525050565b5f602082019050610ad45f830184610ab2565b92915050565b5f60039050919050565b5f81905092915050565b5f819050919050565b610b0081610a1b565b82525050565b5f610b118383610af7565b60208301905092915050565b5f602082019050919050565b610b3281610ada565b610b3c8184610ae4565b9250610b4782610aee565b805f5b83811015610b77578151610b5e8782610b06565b9650610b6983610b1d565b925050600181019050610b4a565b505050505050565b5f606082019050610b925f830184610b29565b92915050565b5f82825260208201905092915050565b7f6e6f2062616c616e6365210000000000000000000000000000000000000000005f82015250565b5f610bdc600b83610b98565b9150610be782610ba8565b602082019050919050565b5f6020820190508181035f830152610c0981610bd0565b9050919050565b5f604082019050610c235f830185610a8a565b610c306020830184610a8a565b9392505050565b7f446f6e6174696f6e20616d6f756e74206d7573742062652067726561746572205f8201527f7468616e20300000000000000000000000000000000000000000000000000000602082015250565b5f610c91602683610b98565b9150610c9c82610c37565b604082019050919050565b5f6020820190508181035f830152610cbe81610c85565b9050919050565b7f446f6e6174696f6e20706572696f642068617320656e646564000000000000005f82015250565b5f610cf9601983610b98565b9150610d0482610cc5565b602082019050919050565b5f6020820190508181035f830152610d2681610ced565b9050919050565b7f4e487b71000000000000000000000000000000000000000000000000000000005f52601160045260245ffd5b5f610d6482610a81565b9150610d6f83610a81565b9250828201905080821115610d8757610d86610d2d565b5b92915050565b7f4e487b71000000000000000000000000000000000000000000000000000000005f52603260045260245ffd5b5f610dc482610a81565b9150610dcf83610a81565b9250828203905081811115610de757610de6610d2d565b5b92915050565b5f610df782610a81565b91505f8203610e0957610e08610d2d565b5b60018203905091905056fea264697066735822122079d4349efc7044006f3d5c7712d80bee6145711bd20f9f3129b70d99f0601b8d64736f6c634300081e0033",
					"opcodes": "PUSH1 0x80 PUSH1 0x40 MSTORE CALLVALUE DUP1 ISZERO PUSH2 0xF JUMPI PUSH0 PUSH0 REVERT JUMPDEST POP CALLER PUSH0 PUSH20 0xFFFFFFFFFFFFFFFFFFFFFFFFFFFFFFFFFFFFFFFF AND DUP2 PUSH20 0xFFFFFFFFFFFFFFFFFFFFFFFFFFFFFFFFFFFFFFFF AND SUB PUSH2 0x81 JUMPI PUSH0 PUSH1 0x40 MLOAD PUSH32 0x1E4FBDF700000000000000000000000000000000000000000000000000000000 DUP2 MSTORE PUSH1 0x4 ADD PUSH2 0x78 SWAP2 SWAP1 PUSH2 0x1AB JUMP JUMPDEST PUSH1 0x40 MLOAD DUP1 SWAP2 SUB SWAP1 REVERT JUMPDEST PUSH2 0x90 DUP2 PUSH2 0xAB PUSH1 0x20 SHL PUSH1 0x20 SHR JUMP JUMPDEST POP PUSH3 0x3F480 TIMESTAMP PUSH2 0xA0 SWAP2 SWAP1 PUSH2 0x1FA JUMP JUMPDEST PUSH1 0x2 DUP2 SWAP1 SSTORE POP PUSH2 0x22D JUMP JUMPDEST PUSH0 PUSH0 PUSH0 SWAP1 SLOAD SWAP1 PUSH2 0x100 EXP SWAP1 DIV PUSH20 0xFFFFFFFFFFFFFFFFFFFFFFFFFFFFFFFFFFFFFFFF AND SWAP1 POP DUP2 PUSH0 PUSH0 PUSH2 0x100 EXP DUP2 SLOAD DUP2 PUSH20 0xFFFFFFFFFFFFFFFFFFFFFFFFFFFFFFFFFFFFFFFF MUL NOT AND SWAP1 DUP4 PUSH20 0xFFFFFFFFFFFFFFFFFFFFFFFFFFFFFFFFFFFFFFFF AND MUL OR SWAP1 SSTORE POP DUP2 PUSH20 0xFFFFFFFFFFFFFFFFFFFFFFFFFFFFFFFFFFFFFFFF AND DUP2 PUSH20 0xFFFFFFFFFFFFFFFFFFFFFFFFFFFFFFFFFFFFFFFF AND PUSH32 0x8BE0079C531659141344CD1FD0A4F28419497F9722A3DAAFE3B4186F6B6457E0 PUSH1 0x40 MLOAD PUSH1 0x40 MLOAD DUP1 SWAP2 SUB SWAP1 LOG3 POP POP JUMP JUMPDEST PUSH0 PUSH20 0xFFFFFFFFFFFFFFFFFFFFFFFFFFFFFFFFFFFFFFFF DUP3 AND SWAP1 POP SWAP2 SWAP1 POP JUMP JUMPDEST PUSH0 PUSH2 0x195 DUP3 PUSH2 0x16C JUMP JUMPDEST SWAP1 POP SWAP2 SWAP1 POP JUMP JUMPDEST PUSH2 0x1A5 DUP2 PUSH2 0x18B JUMP JUMPDEST DUP3 MSTORE POP POP JUMP JUMPDEST PUSH0 PUSH1 0x20 DUP3 ADD SWAP1 POP PUSH2 0x1BE PUSH0 DUP4 ADD DUP5 PUSH2 0x19C JUMP JUMPDEST SWAP3 SWAP2 POP POP JUMP JUMPDEST PUSH0 DUP2 SWAP1 POP SWAP2 SWAP1 POP JUMP JUMPDEST PUSH32 0x4E487B7100000000000000000000000000000000000000000000000000000000 PUSH0 MSTORE PUSH1 0x11 PUSH1 0x4 MSTORE PUSH1 0x24 PUSH0 REVERT JUMPDEST PUSH0 PUSH2 0x204 DUP3 PUSH2 0x1C4 JUMP JUMPDEST SWAP2 POP PUSH2 0x20F DUP4 PUSH2 0x1C4 JUMP JUMPDEST SWAP3 POP DUP3 DUP3 ADD SWAP1 POP DUP1 DUP3 GT ISZERO PUSH2 0x227 JUMPI PUSH2 0x226 PUSH2 0x1CD JUMP JUMPDEST JUMPDEST SWAP3 SWAP2 POP POP JUMP JUMPDEST PUSH2 0xE4A DUP1 PUSH2 0x23A PUSH0 CODECOPY PUSH0 RETURN INVALID PUSH1 0x80 PUSH1 0x40 MSTORE PUSH1 0x4 CALLDATASIZE LT PUSH2 0x7A JUMPI PUSH0 CALLDATALOAD PUSH1 0xE0 SHR DUP1 PUSH4 0xD6387ED8 GT PUSH2 0x4D JUMPI DUP1 PUSH4 0xD6387ED8 EQ PUSH2 0x104 JUMPI DUP1 PUSH4 0xED88C68E EQ PUSH2 0x12E JUMPI DUP1 PUSH4 0xF12A4A53 EQ PUSH2 0x138 JUMPI DUP1 PUSH4 0xF2FDE38B EQ PUSH2 0x162 JUMPI PUSH2 0x7A JUMP JUMPDEST DUP1 PUSH4 0x3CCFD60B EQ PUSH2 0x7E JUMPI DUP1 PUSH4 0x410A1D32 EQ PUSH2 0x88 JUMPI DUP1 PUSH4 0x715018A6 EQ PUSH2 0xC4 JUMPI DUP1 PUSH4 0x8DA5CB5B EQ PUSH2 0xDA JUMPI JUMPDEST PUSH0 PUSH0 REVERT JUMPDEST PUSH2 0x86 PUSH2 0x18A JUMP JUMPDEST STOP JUMPDEST CALLVALUE DUP1 ISZERO PUSH2 0x93 JUMPI PUSH0 PUSH0 REVERT JUMPDEST POP PUSH2 0xAE PUSH1 0x4 DUP1 CALLDATASIZE SUB DUP2 ADD SWAP1 PUSH2 0xA9 SWAP2 SWAP1 PUSH2 0xA56 JUMP JUMPDEST PUSH2 0x27D JUMP JUMPDEST PUSH1 0x40 MLOAD PUSH2 0xBB SWAP2 SWAP1 PUSH2 0xA99 JUMP JUMPDEST PUSH1 0x40 MLOAD DUP1 SWAP2 SUB SWAP1 RETURN JUMPDEST CALLVALUE DUP1 ISZERO PUSH2 0xCF JUMPI PUSH0 PUSH0 REVERT JUMPDEST POP PUSH2 0xD8 PUSH2 0x2C3 JUMP JUMPDEST STOP JUMPDEST CALLVALUE DUP1 ISZERO PUSH2 0xE5 JUMPI PUSH0 PUSH0 REVERT JUMPDEST POP PUSH2 0xEE PUSH2 0x2D6 JUMP JUMPDEST PUSH1 0x40 MLOAD PUSH2 0xFB SWAP2 SWAP1 PUSH2 0xAC1 JUMP JUMPDEST PUSH1 0x40 MLOAD DUP1 SWAP2 SUB SWAP1 RETURN JUMPDEST CALLVALUE DUP1 ISZERO PUSH2 0x10F JUMPI PUSH0 PUSH0 REVERT JUMPDEST POP PUSH2 0x118 PUSH2 0x2FD JUMP JUMPDEST PUSH1 0x40 MLOAD PUSH2 0x125 SWAP2 SWAP1 PUSH2 0xB7F JUMP JUMPDEST PUSH1 0x40 MLOAD DUP1 SWAP2 SUB SWAP1 RETURN JUMPDEST PUSH2 0x136 PUSH2 0x37C JUMP JUMPDEST STOP JUMPDEST CALLVALUE DUP1 ISZERO PUSH2 0x143 JUMPI PUSH0 PUSH0 REVERT JUMPDEST POP PUSH2 0x14C PUSH2 0x4B5 JUMP JUMPDEST PUSH1 0x40 MLOAD PUSH2 0x159 SWAP2 SWAP1 PUSH2 0xA99 JUMP JUMPDEST PUSH1 0x40 MLOAD DUP1 SWAP2 SUB SWAP1 RETURN JUMPDEST CALLVALUE DUP1 ISZERO PUSH2 0x16D JUMPI PUSH0 PUSH0 REVERT JUMPDEST POP PUSH2 0x188 PUSH1 0x4 DUP1 CALLDATASIZE SUB DUP2 ADD SWAP1 PUSH2 0x183 SWAP2 SWAP1 PUSH2 0xA56 JUMP JUMPDEST PUSH2 0x4BB JUMP JUMPDEST STOP JUMPDEST PUSH2 0x192 PUSH2 0x53F JUMP JUMPDEST PUSH0 SELFBALANCE SWAP1 POP PUSH0 DUP2 GT PUSH2 0x1D8 JUMPI PUSH1 0x40 MLOAD PUSH32 0x8C379A000000000000000000000000000000000000000000000000000000000 DUP2 MSTORE PUSH1 0x4 ADD PUSH2 0x1CF SWAP1 PUSH2 0xBF2 JUMP JUMPDEST PUSH1 0x40 MLOAD DUP1 SWAP2 SUB SWAP1 REVERT JUMPDEST PUSH2 0x1E0 PUSH2 0x2D6 JUMP JUMPDEST PUSH20 0xFFFFFFFFFFFFFFFFFFFFFFFFFFFFFFFFFFFFFFFF AND PUSH2 0x8FC DUP3 SWAP1 DUP2 ISZERO MUL SWAP1 PUSH1 0x40 MLOAD PUSH0 PUSH1 0x40 MLOAD DUP1 DUP4 SUB DUP2 DUP6 DUP9 DUP9 CALL SWAP4 POP POP POP POP ISZERO DUP1 ISZERO PUSH2 0x222 JUMPI RETURNDATASIZE PUSH0 PUSH0 RETURNDATACOPY RETURNDATASIZE PUSH0 REVERT JUMPDEST POP PUSH2 0x22B PUSH2 0x2D6 JUMP JUMPDEST PUSH20 0xFFFFFFFFFFFFFFFFFFFFFFFFFFFFFFFFFFFFFFFF AND PUSH32 0x106AAC375BBCF013D1E52338BBF9E740009A1A3A6869F8DAA1B72AA1620F5FEC DUP3 TIMESTAMP PUSH1 0x40 MLOAD PUSH2 0x272 SWAP3 SWAP2 SWAP1 PUSH2 0xC10 JUMP JUMPDEST PUSH1 0x40 MLOAD DUP1 SWAP2 SUB SWAP1 LOG2 POP JUMP JUMPDEST PUSH0 PUSH1 0x1 PUSH0 DUP4 PUSH20 0xFFFFFFFFFFFFFFFFFFFFFFFFFFFFFFFFFFFFFFFF AND PUSH20 0xFFFFFFFFFFFFFFFFFFFFFFFFFFFFFFFFFFFFFFFF AND DUP2 MSTORE PUSH1 0x20 ADD SWAP1 DUP2 MSTORE PUSH1 0x20 ADD PUSH0 KECCAK256 SLOAD SWAP1 POP SWAP2 SWAP1 POP JUMP JUMPDEST PUSH2 0x2CB PUSH2 0x53F JUMP JUMPDEST PUSH2 0x2D4 PUSH0 PUSH2 0x5C6 JUMP JUMPDEST JUMP JUMPDEST PUSH0 PUSH0 PUSH0 SWAP1 SLOAD SWAP1 PUSH2 0x100 EXP SWAP1 DIV PUSH20 0xFFFFFFFFFFFFFFFFFFFFFFFFFFFFFFFFFFFFFFFF AND SWAP1 POP SWAP1 JUMP JUMPDEST PUSH2 0x305 PUSH2 0x9D6 JUMP JUMPDEST PUSH1 0x3 DUP1 DUP1 PUSH1 0x20 MUL PUSH1 0x40 MLOAD SWAP1 DUP2 ADD PUSH1 0x40 MSTORE DUP1 SWAP3 SWAP2 SWAP1 DUP3 PUSH1 0x3 DUP1 ISZERO PUSH2 0x372 JUMPI PUSH1 0x20 MUL DUP3 ADD SWAP2 JUMPDEST DUP2 PUSH0 SWAP1 SLOAD SWAP1 PUSH2 0x100 EXP SWAP1 DIV PUSH20 0xFFFFFFFFFFFFFFFFFFFFFFFFFFFFFFFFFFFFFFFF AND PUSH20 0xFFFFFFFFFFFFFFFFFFFFFFFFFFFFFFFFFFFFFFFF AND DUP2 MSTORE PUSH1 0x20 ADD SWAP1 PUSH1 0x1 ADD SWAP1 DUP1 DUP4 GT PUSH2 0x329 JUMPI JUMPDEST POP POP POP POP POP SWAP1 POP SWAP1 JUMP JUMPDEST PUSH0 CALLVALUE SWAP1 POP PUSH0 DUP2 GT PUSH2 0x3C2 JUMPI PUSH1 0x40 MLOAD PUSH32 0x8C379A000000000000000000000000000000000000000000000000000000000 DUP2 MSTORE PUSH1 0x4 ADD PUSH2 0x3B9 SWAP1 PUSH2 0xCA7 JUMP JUMPDEST PUSH1 0x40 MLOAD DUP1 SWAP2 SUB SWAP1 REVERT JUMPDEST PUSH1 0x2 SLOAD TIMESTAMP LT PUSH2 0x406 JUMPI PUSH1 0x40 MLOAD PUSH32 0x8C379A000000000000000000000000000000000000000000000000000000000 DUP2 MSTORE PUSH1 0x4 ADD PUSH2 0x3FD SWAP1 PUSH2 0xD0F JUMP JUMPDEST PUSH1 0x40 MLOAD DUP1 SWAP2 SUB SWAP1 REVERT JUMPDEST DUP1 PUSH1 0x1 PUSH0 CALLER PUSH20 0xFFFFFFFFFFFFFFFFFFFFFFFFFFFFFFFFFFFFFFFF AND PUSH20 0xFFFFFFFFFFFFFFFFFFFFFFFFFFFFFFFFFFFFFFFF AND DUP2 MSTORE PUSH1 0x20 ADD SWAP1 DUP2 MSTORE PUSH1 0x20 ADD PUSH0 KECCAK256 PUSH0 DUP3 DUP3 SLOAD PUSH2 0x452 SWAP2 SWAP1 PUSH2 0xD5A JUMP JUMPDEST SWAP3 POP POP DUP2 SWAP1 SSTORE POP PUSH2 0x462 CALLER PUSH2 0x687 JUMP JUMPDEST CALLER PUSH20 0xFFFFFFFFFFFFFFFFFFFFFFFFFFFFFFFFFFFFFFFF AND PUSH32 0x106AAC375BBCF013D1E52338BBF9E740009A1A3A6869F8DAA1B72AA1620F5FEC CALLVALUE TIMESTAMP PUSH1 0x40 MLOAD PUSH2 0x4AA SWAP3 SWAP2 SWAP1 PUSH2 0xC10 JUMP JUMPDEST PUSH1 0x40 MLOAD DUP1 SWAP2 SUB SWAP1 LOG2 POP JUMP JUMPDEST PUSH1 0x2 SLOAD DUP2 JUMP JUMPDEST PUSH2 0x4C3 PUSH2 0x53F JUMP JUMPDEST PUSH0 PUSH20 0xFFFFFFFFFFFFFFFFFFFFFFFFFFFFFFFFFFFFFFFF AND DUP2 PUSH20 0xFFFFFFFFFFFFFFFFFFFFFFFFFFFFFFFFFFFFFFFF AND SUB PUSH2 0x533 JUMPI PUSH0 PUSH1 0x40 MLOAD PUSH32 0x1E4FBDF700000000000000000000000000000000000000000000000000000000 DUP2 MSTORE PUSH1 0x4 ADD PUSH2 0x52A SWAP2 SWAP1 PUSH2 0xAC1 JUMP JUMPDEST PUSH1 0x40 MLOAD DUP1 SWAP2 SUB SWAP1 REVERT JUMPDEST PUSH2 0x53C DUP2 PUSH2 0x5C6 JUMP JUMPDEST POP JUMP JUMPDEST PUSH2 0x547 PUSH2 0x9CF JUMP JUMPDEST PUSH20 0xFFFFFFFFFFFFFFFFFFFFFFFFFFFFFFFFFFFFFFFF AND PUSH2 0x565 PUSH2 0x2D6 JUMP JUMPDEST PUSH20 0xFFFFFFFFFFFFFFFFFFFFFFFFFFFFFFFFFFFFFFFF AND EQ PUSH2 0x5C4 JUMPI PUSH2 0x588 PUSH2 0x9CF JUMP JUMPDEST PUSH1 0x40 MLOAD PUSH32 0x118CDAA700000000000000000000000000000000000000000000000000000000 DUP2 MSTORE PUSH1 0x4 ADD PUSH2 0x5BB SWAP2 SWAP1 PUSH2 0xAC1 JUMP JUMPDEST PUSH1 0x40 MLOAD DUP1 SWAP2 SUB SWAP1 REVERT JUMPDEST JUMP JUMPDEST PUSH0 PUSH0 PUSH0 SWAP1 SLOAD SWAP1 PUSH2 0x100 EXP SWAP1 DIV PUSH20 0xFFFFFFFFFFFFFFFFFFFFFFFFFFFFFFFFFFFFFFFF AND SWAP1 POP DUP2 PUSH0 PUSH0 PUSH2 0x100 EXP DUP2 SLOAD DUP2 PUSH20 0xFFFFFFFFFFFFFFFFFFFFFFFFFFFFFFFFFFFFFFFF MUL NOT AND SWAP1 DUP4 PUSH20 0xFFFFFFFFFFFFFFFFFFFFFFFFFFFFFFFFFFFFFFFF AND MUL OR SWAP1 SSTORE POP DUP2 PUSH20 0xFFFFFFFFFFFFFFFFFFFFFFFFFFFFFFFFFFFFFFFF AND DUP2 PUSH20 0xFFFFFFFFFFFFFFFFFFFFFFFFFFFFFFFFFFFFFFFF AND PUSH32 0x8BE0079C531659141344CD1FD0A4F28419497F9722A3DAAFE3B4186F6B6457E0 PUSH1 0x40 MLOAD PUSH1 0x40 MLOAD DUP1 SWAP2 SUB SWAP1 LOG3 POP POP JUMP JUMPDEST PUSH0 PUSH1 0x1 PUSH0 DUP4 PUSH20 0xFFFFFFFFFFFFFFFFFFFFFFFFFFFFFFFFFFFFFFFF AND PUSH20 0xFFFFFFFFFFFFFFFFFFFFFFFFFFFFFFFFFFFFFFFF AND DUP2 MSTORE PUSH1 0x20 ADD SWAP1 DUP2 MSTORE PUSH1 0x20 ADD PUSH0 KECCAK256 SLOAD SWAP1 POP PUSH0 PUSH0 SWAP1 POP PUSH0 PUSH0 SWAP1 POP JUMPDEST PUSH1 0x3 DUP2 LT ISZERO PUSH2 0x819 JUMPI DUP4 PUSH20 0xFFFFFFFFFFFFFFFFFFFFFFFFFFFFFFFFFFFFFFFF AND PUSH1 0x3 DUP3 PUSH1 0x3 DUP2 LT PUSH2 0x705 JUMPI PUSH2 0x704 PUSH2 0xD8D JUMP JUMPDEST JUMPDEST ADD PUSH0 SWAP1 SLOAD SWAP1 PUSH2 0x100 EXP SWAP1 DIV PUSH20 0xFFFFFFFFFFFFFFFFFFFFFFFFFFFFFFFFFFFFFFFF AND PUSH20 0xFFFFFFFFFFFFFFFFFFFFFFFFFFFFFFFFFFFFFFFF AND SUB PUSH2 0x74A JUMPI PUSH1 0x1 SWAP2 POP PUSH2 0x819 JUMP JUMPDEST PUSH0 PUSH20 0xFFFFFFFFFFFFFFFFFFFFFFFFFFFFFFFFFFFFFFFF AND PUSH1 0x3 DUP3 PUSH1 0x3 DUP2 LT PUSH2 0x775 JUMPI PUSH2 0x774 PUSH2 0xD8D JUMP JUMPDEST JUMPDEST ADD PUSH0 SWAP1 SLOAD SWAP1 PUSH2 0x100 EXP SWAP1 DIV PUSH20 0xFFFFFFFFFFFFFFFFFFFFFFFFFFFFFFFFFFFFFFFF AND PUSH20 0xFFFFFFFFFFFFFFFFFFFFFFFFFFFFFFFFFFFFFFFF AND SUB PUSH2 0x80C JUMPI DUP4 PUSH1 0x3 DUP3 PUSH1 0x3 DUP2 LT PUSH2 0x7C6 JUMPI PUSH2 0x7C5 PUSH2 0xD8D JUMP JUMPDEST JUMPDEST ADD PUSH0 PUSH2 0x100 EXP DUP2 SLOAD DUP2 PUSH20 0xFFFFFFFFFFFFFFFFFFFFFFFFFFFFFFFFFFFFFFFF MUL NOT AND SWAP1 DUP4 PUSH20 0xFFFFFFFFFFFFFFFFFFFFFFFFFFFFFFFFFFFFFFFF AND MUL OR SWAP1 SSTORE POP POP POP POP PUSH2 0x9CC JUMP JUMPDEST DUP1 DUP1 PUSH1 0x1 ADD SWAP2 POP POP PUSH2 0x6D1 JUMP JUMPDEST POP DUP1 ISZERO PUSH2 0x827 JUMPI POP POP PUSH2 0x9CC JUMP JUMPDEST PUSH0 PUSH0 SWAP1 POP JUMPDEST PUSH1 0x3 DUP2 LT ISZERO PUSH2 0x9C8 JUMPI PUSH1 0x1 PUSH0 PUSH1 0x3 DUP4 PUSH1 0x3 DUP2 LT PUSH2 0x84C JUMPI PUSH2 0x84B PUSH2 0xD8D JUMP JUMPDEST JUMPDEST ADD PUSH0 SWAP1 SLOAD SWAP1 PUSH2 0x100 EXP SWAP1 DIV PUSH20 0xFFFFFFFFFFFFFFFFFFFFFFFFFFFFFFFFFFFFFFFF AND PUSH20 0xFFFFFFFFFFFFFFFFFFFFFFFFFFFFFFFFFFFFFFFF AND PUSH20 0xFFFFFFFFFFFFFFFFFFFFFFFFFFFFFFFFFFFFFFFF AND DUP2 MSTORE PUSH1 0x20 ADD SWAP1 DUP2 MSTORE PUSH1 0x20 ADD PUSH0 KECCAK256 SLOAD DUP4 GT ISZERO PUSH2 0x9BB JUMPI PUSH0 PUSH1 0x2 SWAP1 POP JUMPDEST DUP2 DUP2 GT ISZERO PUSH2 0x962 JUMPI PUSH1 0x3 PUSH1 0x1 DUP3 PUSH2 0x8CB SWAP2 SWAP1 PUSH2 0xDBA JUMP JUMPDEST PUSH1 0x3 DUP2 LT PUSH2 0x8DC JUMPI PUSH2 0x8DB PUSH2 0xD8D JUMP JUMPDEST JUMPDEST ADD PUSH0 SWAP1 SLOAD SWAP1 PUSH2 0x100 EXP SWAP1 DIV PUSH20 0xFFFFFFFFFFFFFFFFFFFFFFFFFFFFFFFFFFFFFFFF AND PUSH1 0x3 DUP3 PUSH1 0x3 DUP2 LT PUSH2 0x911 JUMPI PUSH2 0x910 PUSH2 0xD8D JUMP JUMPDEST JUMPDEST ADD PUSH0 PUSH2 0x100 EXP DUP2 SLOAD DUP2 PUSH20 0xFFFFFFFFFFFFFFFFFFFFFFFFFFFFFFFFFFFFFFFF MUL NOT AND SWAP1 DUP4 PUSH20 0xFFFFFFFFFFFFFFFFFFFFFFFFFFFFFFFFFFFFFFFF AND MUL OR SWAP1 SSTORE POP DUP1 DUP1 PUSH2 0x95A SWAP1 PUSH2 0xDED JUMP JUMPDEST SWAP2 POP POP PUSH2 0x8B4 JUMP JUMPDEST POP DUP4 PUSH1 0x3 DUP3 PUSH1 0x3 DUP2 LT PUSH2 0x978 JUMPI PUSH2 0x977 PUSH2 0xD8D JUMP JUMPDEST JUMPDEST ADD PUSH0 PUSH2 0x100 EXP DUP2 SLOAD DUP2 PUSH20 0xFFFFFFFFFFFFFFFFFFFFFFFFFFFFFFFFFFFFFFFF MUL NOT AND SWAP1 DUP4 PUSH20 0xFFFFFFFFFFFFFFFFFFFFFFFFFFFFFFFFFFFFFFFF AND MUL OR SWAP1 SSTORE POP PUSH2 0x9C8 JUMP JUMPDEST DUP1 DUP1 PUSH1 0x1 ADD SWAP2 POP POP PUSH2 0x82C JUMP JUMPDEST POP POP POP JUMPDEST POP JUMP JUMPDEST PUSH0 CALLER SWAP1 POP SWAP1 JUMP JUMPDEST PUSH1 0x40 MLOAD DUP1 PUSH1 0x60 ADD PUSH1 0x40 MSTORE DUP1 PUSH1 0x3 SWAP1 PUSH1 0x20 DUP3 MUL DUP1 CALLDATASIZE DUP4 CALLDATACOPY DUP1 DUP3 ADD SWAP2 POP POP SWAP1 POP POP SWAP1 JUMP JUMPDEST PUSH0 PUSH0 REVERT JUMPDEST PUSH0 PUSH20 0xFFFFFFFFFFFFFFFFFFFFFFFFFFFFFFFFFFFFFFFF DUP3 AND SWAP1 POP SWAP2 SWAP1 POP JUMP JUMPDEST PUSH0 PUSH2 0xA25 DUP3 PUSH2 0x9FC JUMP JUMPDEST SWAP1 POP SWAP2 SWAP1 POP JUMP JUMPDEST PUSH2 0xA35 DUP2 PUSH2 0xA1B JUMP JUMPDEST DUP2 EQ PUSH2 0xA3F JUMPI PUSH0 PUSH0 REVERT JUMPDEST POP JUMP JUMPDEST PUSH0 DUP2 CALLDATALOAD SWAP1 POP PUSH2 0xA50 DUP2 PUSH2 0xA2C JUMP JUMPDEST SWAP3 SWAP2 POP POP JUMP JUMPDEST PUSH0 PUSH1 0x20 DUP3 DUP5 SUB SLT ISZERO PUSH2 0xA6B JUMPI PUSH2 0xA6A PUSH2 0x9F8 JUMP JUMPDEST JUMPDEST PUSH0 PUSH2 0xA78 DUP5 DUP3 DUP6 ADD PUSH2 0xA42 JUMP JUMPDEST SWAP2 POP POP SWAP3 SWAP2 POP POP JUMP JUMPDEST PUSH0 DUP2 SWAP1 POP SWAP2 SWAP1 POP JUMP JUMPDEST PUSH2 0xA93 DUP2 PUSH2 0xA81 JUMP JUMPDEST DUP3 MSTORE POP POP JUMP JUMPDEST PUSH0 PUSH1 0x20 DUP3 ADD SWAP1 POP PUSH2 0xAAC PUSH0 DUP4 ADD DUP5 PUSH2 0xA8A JUMP JUMPDEST SWAP3 SWAP2 POP POP JUMP JUMPDEST PUSH2 0xABB DUP2 PUSH2 0xA1B JUMP JUMPDEST DUP3 MSTORE POP POP JUMP JUMPDEST PUSH0 PUSH1 0x20 DUP3 ADD SWAP1 POP PUSH2 0xAD4 PUSH0 DUP4 ADD DUP5 PUSH2 0xAB2 JUMP JUMPDEST SWAP3 SWAP2 POP POP JUMP JUMPDEST PUSH0 PUSH1 0x3 SWAP1 POP SWAP2 SWAP1 POP JUMP JUMPDEST PUSH0 DUP2 SWAP1 POP SWAP3 SWAP2 POP POP JUMP JUMPDEST PUSH0 DUP2 SWAP1 POP SWAP2 SWAP1 POP JUMP JUMPDEST PUSH2 0xB00 DUP2 PUSH2 0xA1B JUMP JUMPDEST DUP3 MSTORE POP POP JUMP JUMPDEST PUSH0 PUSH2 0xB11 DUP4 DUP4 PUSH2 0xAF7 JUMP JUMPDEST PUSH1 0x20 DUP4 ADD SWAP1 POP SWAP3 SWAP2 POP POP JUMP JUMPDEST PUSH0 PUSH1 0x20 DUP3 ADD SWAP1 POP SWAP2 SWAP1 POP JUMP JUMPDEST PUSH2 0xB32 DUP2 PUSH2 0xADA JUMP JUMPDEST PUSH2 0xB3C DUP2 DUP5 PUSH2 0xAE4 JUMP JUMPDEST SWAP3 POP PUSH2 0xB47 DUP3 PUSH2 0xAEE JUMP JUMPDEST DUP1 PUSH0 JUMPDEST DUP4 DUP2 LT ISZERO PUSH2 0xB77 JUMPI DUP2 MLOAD PUSH2 0xB5E DUP8 DUP3 PUSH2 0xB06 JUMP JUMPDEST SWAP7 POP PUSH2 0xB69 DUP4 PUSH2 0xB1D JUMP JUMPDEST SWAP3 POP POP PUSH1 0x1 DUP2 ADD SWAP1 POP PUSH2 0xB4A JUMP JUMPDEST POP POP POP POP POP POP JUMP JUMPDEST PUSH0 PUSH1 0x60 DUP3 ADD SWAP1 POP PUSH2 0xB92 PUSH0 DUP4 ADD DUP5 PUSH2 0xB29 JUMP JUMPDEST SWAP3 SWAP2 POP POP JUMP JUMPDEST PUSH0 DUP3 DUP3 MSTORE PUSH1 0x20 DUP3 ADD SWAP1 POP SWAP3 SWAP2 POP POP JUMP JUMPDEST PUSH32 0x6E6F2062616C616E636521000000000000000000000000000000000000000000 PUSH0 DUP3 ADD MSTORE POP JUMP JUMPDEST PUSH0 PUSH2 0xBDC PUSH1 0xB DUP4 PUSH2 0xB98 JUMP JUMPDEST SWAP2 POP PUSH2 0xBE7 DUP3 PUSH2 0xBA8 JUMP JUMPDEST PUSH1 0x20 DUP3 ADD SWAP1 POP SWAP2 SWAP1 POP JUMP JUMPDEST PUSH0 PUSH1 0x20 DUP3 ADD SWAP1 POP DUP2 DUP2 SUB PUSH0 DUP4 ADD MSTORE PUSH2 0xC09 DUP2 PUSH2 0xBD0 JUMP JUMPDEST SWAP1 POP SWAP2 SWAP1 POP JUMP JUMPDEST PUSH0 PUSH1 0x40 DUP3 ADD SWAP1 POP PUSH2 0xC23 PUSH0 DUP4 ADD DUP6 PUSH2 0xA8A JUMP JUMPDEST PUSH2 0xC30 PUSH1 0x20 DUP4 ADD DUP5 PUSH2 0xA8A JUMP JUMPDEST SWAP4 SWAP3 POP POP POP JUMP JUMPDEST PUSH32 0x446F6E6174696F6E20616D6F756E74206D757374206265206772656174657220 PUSH0 DUP3 ADD MSTORE PUSH32 0x7468616E20300000000000000000000000000000000000000000000000000000 PUSH1 0x20 DUP3 ADD MSTORE POP JUMP JUMPDEST PUSH0 PUSH2 0xC91 PUSH1 0x26 DUP4 PUSH2 0xB98 JUMP JUMPDEST SWAP2 POP PUSH2 0xC9C DUP3 PUSH2 0xC37 JUMP JUMPDEST PUSH1 0x40 DUP3 ADD SWAP1 POP SWAP2 SWAP1 POP JUMP JUMPDEST PUSH0 PUSH1 0x20 DUP3 ADD SWAP1 POP DUP2 DUP2 SUB PUSH0 DUP4 ADD MSTORE PUSH2 0xCBE DUP2 PUSH2 0xC85 JUMP JUMPDEST SWAP1 POP SWAP2 SWAP1 POP JUMP JUMPDEST PUSH32 0x446F6E6174696F6E20706572696F642068617320656E64656400000000000000 PUSH0 DUP3 ADD MSTORE POP JUMP JUMPDEST PUSH0 PUSH2 0xCF9 PUSH1 0x19 DUP4 PUSH2 0xB98 JUMP JUMPDEST SWAP2 POP PUSH2 0xD04 DUP3 PUSH2 0xCC5 JUMP JUMPDEST PUSH1 0x20 DUP3 ADD SWAP1 POP SWAP2 SWAP1 POP JUMP JUMPDEST PUSH0 PUSH1 0x20 DUP3 ADD SWAP1 POP DUP2 DUP2 SUB PUSH0 DUP4 ADD MSTORE PUSH2 0xD26 DUP2 PUSH2 0xCED JUMP JUMPDEST SWAP1 POP SWAP2 SWAP1 POP JUMP JUMPDEST PUSH32 0x4E487B7100000000000000000000000000000000000000000000000000000000 PUSH0 MSTORE PUSH1 0x11 PUSH1 0x4 MSTORE PUSH1 0x24 PUSH0 REVERT JUMPDEST PUSH0 PUSH2 0xD64 DUP3 PUSH2 0xA81 JUMP JUMPDEST SWAP2 POP PUSH2 0xD6F DUP4 PUSH2 0xA81 JUMP JUMPDEST SWAP3 POP DUP3 DUP3 ADD SWAP1 POP DUP1 DUP3 GT ISZERO PUSH2 0xD87 JUMPI PUSH2 0xD86 PUSH2 0xD2D JUMP JUMPDEST JUMPDEST SWAP3 SWAP2 POP POP JUMP JUMPDEST PUSH32 0x4E487B7100000000000000000000000000000000000000000000000000000000 PUSH0 MSTORE PUSH1 0x32 PUSH1 0x4 MSTORE PUSH1 0x24 PUSH0 REVERT JUMPDEST PUSH0 PUSH2 0xDC4 DUP3 PUSH2 0xA81 JUMP JUMPDEST SWAP2 POP PUSH2 0xDCF DUP4 PUSH2 0xA81 JUMP JUMPDEST SWAP3 POP DUP3 DUP3 SUB SWAP1 POP DUP2 DUP2 GT ISZERO PUSH2 0xDE7 JUMPI PUSH2 0xDE6 PUSH2 0xD2D JUMP JUMPDEST JUMPDEST SWAP3 SWAP2 POP POP JUMP JUMPDEST PUSH0 PUSH2 0xDF7 DUP3 PUSH2 0xA81 JUMP JUMPDEST SWAP2 POP PUSH0 DUP3 SUB PUSH2 0xE09 JUMPI PUSH2 0xE08 PUSH2 0xD2D JUMP JUMPDEST JUMPDEST PUSH1 0x1 DUP3 SUB SWAP1 POP SWAP2 SWAP1 POP JUMP INVALID LOG2 PUSH5 0x6970667358 0x22 SLT KECCAK256 PUSH26 0xD4349EFC7044006F3D5C7712D80BEE6145711BD20F9F3129B70D SWAP10 CREATE PUSH1 0x1B DUP14 PUSH5 0x736F6C6343 STOP ADDMOD 0x1E STOP CALLER "
				},
				"gasEstimates": {
					"creation": {
						"codeDepositCost": "731600",
						"executionCost": "infinite",
						"totalCost": "infinite"
					},
					"external": {
						"donate()": "infinite",
						"donationEndTime()": "2469",
						"getDonation(address)": "2852",
						"getTopDonors()": "infinite",
						"owner()": "2581",
						"renounceOwnership()": "infinite",
						"transferOwnership(address)": "infinite",
						"withdraw()": "infinite"
					},
					"internal": {
						"updateTopDonnors(address)": "infinite"
					}
				},
				"methodIdentifiers": {
					"donate()": "ed88c68e",
					"donationEndTime()": "f12a4a53",
					"getDonation(address)": "410a1d32",
					"getTopDonors()": "d6387ed8",
					"owner()": "8da5cb5b",
					"renounceOwnership()": "715018a6",
					"transferOwnership(address)": "f2fde38b",
					"withdraw()": "3ccfd60b"
				}
			},
			"storageLayout": {
				"storage": [
					{
						"astId": 8,
						"contract": "task2/BeggingContract.sol:BeggingContract",
						"label": "_owner",
						"offset": 0,
						"slot": "0",
						"type": "t_address"
					},
					{
						"astId": 188,
						"contract": "task2/BeggingContract.sol:BeggingContract",
						"label": "_donations",
						"offset": 0,
						"slot": "1",
						"type": "t_mapping(t_address,t_uint256)"
					},
					{
						"astId": 206,
						"contract": "task2/BeggingContract.sol:BeggingContract",
						"label": "donationEndTime",
						"offset": 0,
						"slot": "2",
						"type": "t_uint256"
					},
					{
						"astId": 210,
						"contract": "task2/BeggingContract.sol:BeggingContract",
						"label": "topDonors",
						"offset": 0,
						"slot": "3",
						"type": "t_array(t_address)3_storage"
					}
				],
				"types": {
					"t_address": {
						"encoding": "inplace",
						"label": "address",
						"numberOfBytes": "20"
					},
					"t_array(t_address)3_storage": {
						"base": "t_address",
						"encoding": "inplace",
						"label": "address[3]",
						"numberOfBytes": "96"
					},
					"t_mapping(t_address,t_uint256)": {
						"encoding": "mapping",
						"key": "t_address",
						"label": "mapping(address => uint256)",
						"numberOfBytes": "32",
						"value": "t_uint256"
					},
					"t_uint256": {
						"encoding": "inplace",
						"label": "uint256",
						"numberOfBytes": "32"
					}
				}
			},
			"userdoc": {
				"kind": "user",
				"methods": {},
				"notice": "创建一个名为 BeggingContract 的合约。 合约应包含以下功能： 一个 mapping 来记录每个捐赠者的捐赠金额。 一个 donate 函数，允许用户向合约发送以太币，并记录捐赠信息。 一个 withdraw 函数，允许合约所有者提取所有资金。 一个 getDonation 函数，允许查询某个地址的捐赠金额。 使用 payable 修饰符和 address.transfer 实现支付和提款。 捐赠事件：添加 Donation 事件，记录每次捐赠的地址和金额。 捐赠排行榜：实现一个功能，显示捐赠金额最多的前 3 个地址。 时间限制：添加一个时间限制，只有在特定时间段内才能捐赠。*",
				"version": 1
			}
		}
	}
}