{
	"task2/Donor.sol": {
		"Donor": {
			"abi": [
				{
					"inputs": [],
					"name": "CallFailed",
					"type": "error"
				},
				{
					"inputs": [
						{
							"internalType": "address payable",
							"name": "_to",
							"type": "address"
						},
						{
							"internalType": "uint256",
							"name": "amount",
							"type": "uint256"
						}
					],
					"name": "callETH",
					"outputs": [],
					"stateMutability": "payable",
					"type": "function"
				}
			],
			"devdoc": {
				"kind": "dev",
				"methods": {},
				"version": 1
			},
			"evm": {
				"assembly": "    /* \"task2/Donor.sol\":58:442  contract Donor {... */\n  mstore(0x40, 0x80)\n  callvalue\n  dup1\n  iszero\n  tag_1\n  jumpi\n  revert(0x00, 0x00)\ntag_1:\n  pop\n  dataSize(sub_0)\n  dup1\n  dataOffset(sub_0)\n  0x00\n  codecopy\n  0x00\n  return\nstop\n\nsub_0: assembly {\n        /* \"task2/Donor.sol\":58:442  contract Donor {... */\n      mstore(0x40, 0x80)\n      jumpi(tag_1, lt(calldatasize, 0x04))\n      shr(0xe0, calldataload(0x00))\n      dup1\n      0x8419cf50\n      eq\n      tag_2\n      jumpi\n    tag_1:\n      revert(0x00, 0x00)\n        /* \"task2/Donor.sol\":158:440  function callETH(address payable _to, uint256 amount) external payable {... */\n    tag_2:\n      tag_3\n      0x04\n      dup1\n      calldatasize\n      sub\n      dup2\n      add\n      swap1\n      tag_4\n      swap2\n      swap1\n      tag_5\n      jump\t// in\n    tag_4:\n      tag_6\n      jump\t// in\n    tag_3:\n      stop\n    tag_6:\n        /* \"task2/Donor.sol\":321:333  bool success */\n      0x00\n        /* \"task2/Donor.sol\":339:342  _to */\n      dup3\n        /* \"task2/Donor.sol\":339:347  _to.call */\n      0xffffffffffffffffffffffffffffffffffffffff\n      and\n        /* \"task2/Donor.sol\":355:361  amount */\n      dup3\n        /* \"task2/Donor.sol\":339:366  _to.call{value: amount}(\"\") */\n      mload(0x40)\n      tag_8\n      swap1\n      tag_9\n      jump\t// in\n    tag_8:\n      0x00\n      mload(0x40)\n      dup1\n      dup4\n      sub\n      dup2\n      dup6\n      dup8\n      gas\n      call\n      swap3\n      pop\n      pop\n      pop\n      returndatasize\n      dup1\n      0x00\n      dup2\n      eq\n      tag_12\n      jumpi\n      mload(0x40)\n      swap2\n      pop\n      and(add(returndatasize, 0x3f), not(0x1f))\n      dup3\n      add\n      0x40\n      mstore\n      returndatasize\n      dup3\n      mstore\n      returndatasize\n      0x00\n      0x20\n      dup5\n      add\n      returndatacopy\n      jump(tag_11)\n    tag_12:\n      0x60\n      swap2\n      pop\n    tag_11:\n      pop\n        /* \"task2/Donor.sol\":320:366  (bool success, ) = _to.call{value: amount}(\"\") */\n      pop\n      swap1\n      pop\n        /* \"task2/Donor.sol\":381:388  success */\n      dup1\n        /* \"task2/Donor.sol\":376:434  if (!success) {... */\n      tag_13\n      jumpi\n        /* \"task2/Donor.sol\":411:423  CallFailed() */\n      mload(0x40)\n      0x3204506f00000000000000000000000000000000000000000000000000000000\n      dup2\n      mstore\n      0x04\n      add\n      mload(0x40)\n      dup1\n      swap2\n      sub\n      swap1\n      revert\n        /* \"task2/Donor.sol\":376:434  if (!success) {... */\n    tag_13:\n        /* \"task2/Donor.sol\":229:440  {... */\n      pop\n        /* \"task2/Donor.sol\":158:440  function callETH(address payable _to, uint256 amount) external payable {... */\n      pop\n      pop\n      jump\t// out\n        /* \"#utility.yul\":88:205   */\n    tag_15:\n        /* \"#utility.yul\":197:198   */\n      0x00\n        /* \"#utility.yul\":194:195   */\n      0x00\n        /* \"#utility.yul\":187:199   */\n      revert\n        /* \"#utility.yul\":334:460   */\n    tag_17:\n        /* \"#utility.yul\":371:378   */\n      0x00\n        /* \"#utility.yul\":411:453   */\n      0xffffffffffffffffffffffffffffffffffffffff\n        /* \"#utility.yul\":404:409   */\n      dup3\n        /* \"#utility.yul\":400:454   */\n      and\n        /* \"#utility.yul\":389:454   */\n      swap1\n      pop\n        /* \"#utility.yul\":334:460   */\n      swap2\n      swap1\n      pop\n      jump\t// out\n        /* \"#utility.yul\":466:570   */\n    tag_18:\n        /* \"#utility.yul\":511:518   */\n      0x00\n        /* \"#utility.yul\":540:564   */\n      tag_33\n        /* \"#utility.yul\":558:563   */\n      dup3\n        /* \"#utility.yul\":540:564   */\n      tag_17\n      jump\t// in\n    tag_33:\n        /* \"#utility.yul\":529:564   */\n      swap1\n      pop\n        /* \"#utility.yul\":466:570   */\n      swap2\n      swap1\n      pop\n      jump\t// out\n        /* \"#utility.yul\":576:714   */\n    tag_19:\n        /* \"#utility.yul\":657:689   */\n      tag_35\n        /* \"#utility.yul\":683:688   */\n      dup2\n        /* \"#utility.yul\":657:689   */\n      tag_18\n      jump\t// in\n    tag_35:\n        /* \"#utility.yul\":650:655   */\n      dup2\n        /* \"#utility.yul\":647:690   */\n      eq\n        /* \"#utility.yul\":637:708   */\n      tag_36\n      jumpi\n        /* \"#utility.yul\":704:705   */\n      0x00\n        /* \"#utility.yul\":701:702   */\n      0x00\n        /* \"#utility.yul\":694:706   */\n      revert\n        /* \"#utility.yul\":637:708   */\n    tag_36:\n        /* \"#utility.yul\":576:714   */\n      pop\n      jump\t// out\n        /* \"#utility.yul\":720:875   */\n    tag_20:\n        /* \"#utility.yul\":774:779   */\n      0x00\n        /* \"#utility.yul\":812:818   */\n      dup2\n        /* \"#utility.yul\":799:819   */\n      calldataload\n        /* \"#utility.yul\":790:819   */\n      swap1\n      pop\n        /* \"#utility.yul\":828:869   */\n      tag_38\n        /* \"#utility.yul\":863:868   */\n      dup2\n        /* \"#utility.yul\":828:869   */\n      tag_19\n      jump\t// in\n    tag_38:\n        /* \"#utility.yul\":720:875   */\n      swap3\n      swap2\n      pop\n      pop\n      jump\t// out\n        /* \"#utility.yul\":881:958   */\n    tag_21:\n        /* \"#utility.yul\":918:925   */\n      0x00\n        /* \"#utility.yul\":947:952   */\n      dup2\n        /* \"#utility.yul\":936:952   */\n      swap1\n      pop\n        /* \"#utility.yul\":881:958   */\n      swap2\n      swap1\n      pop\n      jump\t// out\n        /* \"#utility.yul\":964:1086   */\n    tag_22:\n        /* \"#utility.yul\":1037:1061   */\n      tag_41\n        /* \"#utility.yul\":1055:1060   */\n      dup2\n        /* \"#utility.yul\":1037:1061   */\n      tag_21\n      jump\t// in\n    tag_41:\n        /* \"#utility.yul\":1030:1035   */\n      dup2\n        /* \"#utility.yul\":1027:1062   */\n      eq\n        /* \"#utility.yul\":1017:1080   */\n      tag_42\n      jumpi\n        /* \"#utility.yul\":1076:1077   */\n      0x00\n        /* \"#utility.yul\":1073:1074   */\n      0x00\n        /* \"#utility.yul\":1066:1078   */\n      revert\n        /* \"#utility.yul\":1017:1080   */\n    tag_42:\n        /* \"#utility.yul\":964:1086   */\n      pop\n      jump\t// out\n        /* \"#utility.yul\":1092:1231   */\n    tag_23:\n        /* \"#utility.yul\":1138:1143   */\n      0x00\n        /* \"#utility.yul\":1176:1182   */\n      dup2\n        /* \"#utility.yul\":1163:1183   */\n      calldataload\n        /* \"#utility.yul\":1154:1183   */\n      swap1\n      pop\n        /* \"#utility.yul\":1192:1225   */\n      tag_44\n        /* \"#utility.yul\":1219:1224   */\n      dup2\n        /* \"#utility.yul\":1192:1225   */\n      tag_22\n      jump\t// in\n    tag_44:\n        /* \"#utility.yul\":1092:1231   */\n      swap3\n      swap2\n      pop\n      pop\n      jump\t// out\n        /* \"#utility.yul\":1237:1727   */\n    tag_5:\n        /* \"#utility.yul\":1313:1319   */\n      0x00\n        /* \"#utility.yul\":1321:1327   */\n      0x00\n        /* \"#utility.yul\":1370:1372   */\n      0x40\n        /* \"#utility.yul\":1358:1367   */\n      dup4\n        /* \"#utility.yul\":1349:1356   */\n      dup6\n        /* \"#utility.yul\":1345:1368   */\n      sub\n        /* \"#utility.yul\":1341:1373   */\n      slt\n        /* \"#utility.yul\":1338:1457   */\n      iszero\n      tag_46\n      jumpi\n        /* \"#utility.yul\":1376:1455   */\n      tag_47\n      tag_15\n      jump\t// in\n    tag_47:\n        /* \"#utility.yul\":1338:1457   */\n    tag_46:\n        /* \"#utility.yul\":1496:1497   */\n      0x00\n        /* \"#utility.yul\":1521:1582   */\n      tag_48\n        /* \"#utility.yul\":1574:1581   */\n      dup6\n        /* \"#utility.yul\":1565:1571   */\n      dup3\n        /* \"#utility.yul\":1554:1563   */\n      dup7\n        /* \"#utility.yul\":1550:1572   */\n      add\n        /* \"#utility.yul\":1521:1582   */\n      tag_20\n      jump\t// in\n    tag_48:\n        /* \"#utility.yul\":1511:1582   */\n      swap3\n      pop\n        /* \"#utility.yul\":1467:1592   */\n      pop\n        /* \"#utility.yul\":1631:1633   */\n      0x20\n        /* \"#utility.yul\":1657:1710   */\n      tag_49\n        /* \"#utility.yul\":1702:1709   */\n      dup6\n        /* \"#utility.yul\":1693:1699   */\n      dup3\n        /* \"#utility.yul\":1682:1691   */\n      dup7\n        /* \"#utility.yul\":1678:1700   */\n      add\n        /* \"#utility.yul\":1657:1710   */\n      tag_23\n      jump\t// in\n    tag_49:\n        /* \"#utility.yul\":1647:1710   */\n      swap2\n      pop\n        /* \"#utility.yul\":1602:1720   */\n      pop\n        /* \"#utility.yul\":1237:1727   */\n      swap3\n      pop\n      swap3\n      swap1\n      pop\n      jump\t// out\n        /* \"#utility.yul\":1733:1880   */\n    tag_24:\n        /* \"#utility.yul\":1834:1845   */\n      0x00\n        /* \"#utility.yul\":1871:1874   */\n      dup2\n        /* \"#utility.yul\":1856:1874   */\n      swap1\n      pop\n        /* \"#utility.yul\":1733:1880   */\n      swap3\n      swap2\n      pop\n      pop\n      jump\t// out\n        /* \"#utility.yul\":1886:2000   */\n    tag_25:\n      pop\n      jump\t// out\n        /* \"#utility.yul\":2006:2404   */\n    tag_26:\n        /* \"#utility.yul\":2165:2168   */\n      0x00\n        /* \"#utility.yul\":2186:2269   */\n      tag_53\n        /* \"#utility.yul\":2267:2268   */\n      0x00\n        /* \"#utility.yul\":2262:2265   */\n      dup4\n        /* \"#utility.yul\":2186:2269   */\n      tag_24\n      jump\t// in\n    tag_53:\n        /* \"#utility.yul\":2179:2269   */\n      swap2\n      pop\n        /* \"#utility.yul\":2278:2371   */\n      tag_54\n        /* \"#utility.yul\":2367:2370   */\n      dup3\n        /* \"#utility.yul\":2278:2371   */\n      tag_25\n      jump\t// in\n    tag_54:\n        /* \"#utility.yul\":2396:2397   */\n      0x00\n        /* \"#utility.yul\":2391:2394   */\n      dup3\n        /* \"#utility.yul\":2387:2398   */\n      add\n        /* \"#utility.yul\":2380:2398   */\n      swap1\n      pop\n        /* \"#utility.yul\":2006:2404   */\n      swap2\n      swap1\n      pop\n      jump\t// out\n        /* \"#utility.yul\":2410:2789   */\n    tag_9:\n        /* \"#utility.yul\":2594:2597   */\n      0x00\n        /* \"#utility.yul\":2616:2763   */\n      tag_56\n        /* \"#utility.yul\":2759:2762   */\n      dup3\n        /* \"#utility.yul\":2616:2763   */\n      tag_26\n      jump\t// in\n    tag_56:\n        /* \"#utility.yul\":2609:2763   */\n      swap2\n      pop\n        /* \"#utility.yul\":2780:2783   */\n      dup2\n        /* \"#utility.yul\":2773:2783   */\n      swap1\n      pop\n        /* \"#utility.yul\":2410:2789   */\n      swap2\n      swap1\n      pop\n      jump\t// out\n\n    auxdata: 0xa2646970667358221220f5302253591f1fe67434c7c25694e8b8c796c735623f12a1b60c527a394bb97864736f6c634300081e0033\n}\n",
				"bytecode": {
					"linkReferences": {},
					"object": "6080604052348015600e575f5ffd5b506102278061001c5f395ff3fe60806040526004361061001d575f3560e01c80638419cf5014610021575b5f5ffd5b61003b60048036038101906100369190610172565b61003d565b005b5f8273ffffffffffffffffffffffffffffffffffffffff1682604051610062906101dd565b5f6040518083038185875af1925050503d805f811461009c576040519150601f19603f3d011682016040523d82523d5f602084013e6100a1565b606091505b50509050806100dc576040517f3204506f00000000000000000000000000000000000000000000000000000000815260040160405180910390fd5b505050565b5f5ffd5b5f73ffffffffffffffffffffffffffffffffffffffff82169050919050565b5f61010e826100e5565b9050919050565b61011e81610104565b8114610128575f5ffd5b50565b5f8135905061013981610115565b92915050565b5f819050919050565b6101518161013f565b811461015b575f5ffd5b50565b5f8135905061016c81610148565b92915050565b5f5f60408385031215610188576101876100e1565b5b5f6101958582860161012b565b92505060206101a68582860161015e565b9150509250929050565b5f81905092915050565b50565b5f6101c85f836101b0565b91506101d3826101ba565b5f82019050919050565b5f6101e7826101bd565b915081905091905056fea2646970667358221220f5302253591f1fe67434c7c25694e8b8c796c735623f12a1b60c527a394bb97864736f6c634300081e0033",
					"opcodes": "PUSH1 0x80 PUSH1 0x40 MSTORE CALLVALUE DUP1 ISZERO PUSH1 0xE JUMPI PUSH0 PUSH0 REVERT JUMPDEST POP PUSH2 0x227 DUP1 PUSH2 0x1C PUSH0 CODECOPY PUSH0 RETURN INVALID PUSH1 0x80 PUSH1 0x40 MSTORE PUSH1 0x4 CALLDATASIZE LT PUSH2 0x1D JUMPI PUSH0 CALLDATALOAD PUSH1 0xE0 SHR DUP1 PUSH4 0x8419CF50 EQ PUSH2 0x21 JUMPI JUMPDEST PUSH0 PUSH0 REVERT JUMPDEST PUSH2 0x3B PUSH1 0x4 DUP1 CALLDATASIZE SUB DUP2 ADD SWAP1 PUSH2 0x36 SWAP2 SWAP1 PUSH2 0x172 JUMP JUMPDEST PUSH2 0x3D JUMP JUMPDEST STOP JUMPDEST PUSH0 DUP3 PUSH20 0xFFFFFFFFFFFFFFFFFFFFFFFFFFFFFFFFFFFFFFFF AND DUP3 PUSH1 0x40 MLOAD PUSH2 0x62 SWAP1 PUSH2 0x1DD JUMP JUMPDEST PUSH0 PUSH1 0x40 MLOAD DUP1 DUP4 SUB DUP2 DUP6 DUP8 GAS CALL SWAP3 POP POP POP RETURNDATASIZE DUP1 PUSH0 DUP2 EQ PUSH2 0x9C JUMPI PUSH1 0x40 MLOAD SWAP2 POP PUSH1 0x1F NOT PUSH1 0x3F RETURNDATASIZE ADD AND DUP3 ADD PUSH1 0x40 MSTORE RETURNDATASIZE DUP3 MSTORE RETURNDATASIZE PUSH0 PUSH1 0x20 DUP5 ADD RETURNDATACOPY PUSH2 0xA1 JUMP JUMPDEST PUSH1 0x60 SWAP2 POP JUMPDEST POP POP SWAP1 POP DUP1 PUSH2 0xDC JUMPI PUSH1 0x40 MLOAD PUSH32 0x3204506F00000000000000000000000000000000000000000000000000000000 DUP2 MSTORE PUSH1 0x4 ADD PUSH1 0x40 MLOAD DUP1 SWAP2 SUB SWAP1 REVERT JUMPDEST POP POP POP JUMP JUMPDEST PUSH0 PUSH0 REVERT JUMPDEST PUSH0 PUSH20 0xFFFFFFFFFFFFFFFFFFFFFFFFFFFFFFFFFFFFFFFF DUP3 AND SWAP1 POP SWAP2 SWAP1 POP JUMP JUMPDEST PUSH0 PUSH2 0x10E DUP3 PUSH2 0xE5 JUMP JUMPDEST SWAP1 POP SWAP2 SWAP1 POP JUMP JUMPDEST PUSH2 0x11E DUP2 PUSH2 0x104 JUMP JUMPDEST DUP2 EQ PUSH2 0x128 JUMPI PUSH0 PUSH0 REVERT JUMPDEST POP JUMP JUMPDEST PUSH0 DUP2 CALLDATALOAD SWAP1 POP PUSH2 0x139 DUP2 PUSH2 0x115 JUMP JUMPDEST SWAP3 SWAP2 POP POP JUMP JUMPDEST PUSH0 DUP2 SWAP1 POP SWAP2 SWAP1 POP JUMP JUMPDEST PUSH2 0x151 DUP2 PUSH2 0x13F JUMP JUMPDEST DUP2 EQ PUSH2 0x15B JUMPI PUSH0 PUSH0 REVERT JUMPDEST POP JUMP JUMPDEST PUSH0 DUP2 CALLDATALOAD SWAP1 POP PUSH2 0x16C DUP2 PUSH2 0x148 JUMP JUMPDEST SWAP3 SWAP2 POP POP JUMP JUMPDEST PUSH0 PUSH0 PUSH1 0x40 DUP4 DUP6 SUB SLT ISZERO PUSH2 0x188 JUMPI PUSH2 0x187 PUSH2 0xE1 JUMP JUMPDEST JUMPDEST PUSH0 PUSH2 0x195 DUP6 DUP3 DUP7 ADD PUSH2 0x12B JUMP JUMPDEST SWAP3 POP POP PUSH1 0x20 PUSH2 0x1A6 DUP6 DUP3 DUP7 ADD PUSH2 0x15E JUMP JUMPDEST SWAP2 POP POP SWAP3 POP SWAP3 SWAP1 POP JUMP JUMPDEST PUSH0 DUP2 SWAP1 POP SWAP3 SWAP2 POP POP JUMP JUMPDEST POP JUMP JUMPDEST PUSH0 PUSH2 0x1C8 PUSH0 DUP4 PUSH2 0x1B0 JUMP JUMPDEST SWAP2 POP PUSH2 0x1D3 DUP3 PUSH2 0x1BA JUMP JUMPDEST PUSH0 DUP3 ADD SWAP1 POP SWAP2 SWAP1 POP JUMP JUMPDEST PUSH0 PUSH2 0x1E7 DUP3 PUSH2 0x1BD JUMP JUMPDEST SWAP2 POP DUP2 SWAP1 POP SWAP2 SWAP1 POP JUMP INVALID LOG2 PUSH5 0x6970667358 0x22 SLT KECCAK256 CREATE2 ADDRESS 0x22 MSTORE8 MSIZE 0x1F 0x1F DUPN 0x74 CALLVALUE 0xC7 0xC2 JUMP SWAP5 0xE8 0xB8 0xC7 SWAP7 0xC7 CALLDATALOAD PUSH3 0x3F12A1 0xB6 0xC MSTORE PUSH27 0x394BB97864736F6C634300081E0033000000000000000000000000 "
				},
				"gasEstimates": {
					"creation": {
						"codeDepositCost": "110200",
						"executionCost": "157",
						"totalCost": "110357"
					},
					"external": {
						"callETH(address,uint256)": "infinite"
					}
				},
				"methodIdentifiers": {
					"callETH(address,uint256)": "8419cf50"
				}
			},
			"storageLayout": {
				"storage": [],
				"types": null
			},
			"userdoc": {
				"kind": "user",
				"methods": {},
				"version": 1
			}
		}
	}
}